{
  "_format": "hh-sol-artifact-1",
  "contractName": "PayoutSplitter",
  "sourceName": "contracts/PayoutSplitter.sol",
  "abi": [
    {
      "inputs": [
        {
          "internalType": "contract HAI",
          "name": "haiToken",
          "type": "address"
        },
        {
          "internalType": "contract ExecutionLog",
          "name": "log",
          "type": "address"
        },
        {
          "internalType": "contract WorkflowRegistry",
          "name": "reg",
          "type": "address"
        },
        {
          "internalType": "address",
          "name": "initialTreasury",
          "type": "address"
        }
      ],
      "stateMutability": "nonpayable",
      "type": "constructor"
    },
    {
      "inputs": [],
      "name": "AlreadySettled",
      "type": "error"
    },
    {
      "inputs": [],
      "name": "InvalidOverrides",
      "type": "error"
    },
    {
      "inputs": [],
      "name": "MissingRecipient",
      "type": "error"
    },
    {
      "inputs": [],
      "name": "Unauthorized",
      "type": "error"
    },
    {
      "anonymous": false,
      "inputs": [
        {
          "indexed": true,
          "internalType": "bytes32",
          "name": "assetId",
          "type": "bytes32"
        },
        {
          "indexed": true,
          "internalType": "address",
          "name": "recipient",
          "type": "address"
        }
      ],
      "name": "AssetRecipientUpdated",
      "type": "event"
    },
    {
      "anonymous": false,
      "inputs": [
        {
          "indexed": true,
          "internalType": "address",
          "name": "newGovernance",
          "type": "address"
        }
      ],
      "name": "GovernanceUpdated",
      "type": "event"
    },
    {
      "anonymous": false,
      "inputs": [
        {
          "indexed": true,
          "internalType": "bytes32",
          "name": "jobId",
          "type": "bytes32"
        },
        {
          "indexed": true,
          "internalType": "bytes32",
          "name": "workflowId",
          "type": "bytes32"
        },
        {
          "indexed": false,
          "internalType": "uint256",
          "name": "totalFee",
          "type": "uint256"
        }
      ],
      "name": "PayoutSettled",
      "type": "event"
    },
    {
      "anonymous": false,
      "inputs": [
        {
          "indexed": true,
          "internalType": "address",
          "name": "newTreasury",
          "type": "address"
        }
      ],
      "name": "TreasuryUpdated",
      "type": "event"
    },
    {
      "inputs": [],
      "name": "BPS",
      "outputs": [
        {
          "internalType": "uint16",
          "name": "",
          "type": "uint16"
        }
      ],
      "stateMutability": "view",
      "type": "function"
    },
    {
      "inputs": [
        {
          "internalType": "bytes32",
          "name": "",
          "type": "bytes32"
        }
      ],
      "name": "assetRecipient",
      "outputs": [
        {
          "internalType": "address",
          "name": "",
          "type": "address"
        }
      ],
      "stateMutability": "view",
      "type": "function"
    },
    {
      "inputs": [],
      "name": "executionLog",
      "outputs": [
        {
          "internalType": "contract ExecutionLog",
          "name": "",
          "type": "address"
        }
      ],
      "stateMutability": "view",
      "type": "function"
    },
    {
      "inputs": [],
      "name": "governance",
      "outputs": [
        {
          "internalType": "address",
          "name": "",
          "type": "address"
        }
      ],
      "stateMutability": "view",
      "type": "function"
    },
    {
      "inputs": [],
      "name": "hai",
      "outputs": [
        {
          "internalType": "contract HAI",
          "name": "",
          "type": "address"
        }
      ],
      "stateMutability": "view",
      "type": "function"
    },
    {
      "inputs": [
        {
          "internalType": "bytes32",
          "name": "",
          "type": "bytes32"
        }
      ],
      "name": "jobSettled",
      "outputs": [
        {
          "internalType": "bool",
          "name": "",
          "type": "bool"
        }
      ],
      "stateMutability": "view",
      "type": "function"
    },
    {
      "inputs": [],
      "name": "registry",
      "outputs": [
        {
          "internalType": "contract WorkflowRegistry",
          "name": "",
          "type": "address"
        }
      ],
      "stateMutability": "view",
      "type": "function"
    },
    {
      "inputs": [
        {
          "internalType": "bytes32",
          "name": "assetId",
          "type": "bytes32"
        },
        {
          "internalType": "address",
          "name": "recipient",
          "type": "address"
        }
      ],
      "name": "setAssetRecipient",
      "outputs": [],
      "stateMutability": "nonpayable",
      "type": "function"
    },
    {
      "inputs": [
        {
          "internalType": "address",
          "name": "newGovernance",
          "type": "address"
        }
      ],
      "name": "setGovernance",
      "outputs": [],
      "stateMutability": "nonpayable",
      "type": "function"
    },
    {
      "inputs": [
        {
          "internalType": "address",
          "name": "newTreasury",
          "type": "address"
        }
      ],
      "name": "setTreasury",
      "outputs": [],
      "stateMutability": "nonpayable",
      "type": "function"
    },
    {
      "inputs": [
        {
          "internalType": "bytes32",
          "name": "jobId",
          "type": "bytes32"
        },
        {
          "internalType": "address",
          "name": "nodeRecipient",
          "type": "address"
        },
        {
          "internalType": "address[]",
          "name": "validatorRecipients",
          "type": "address[]"
        },
        {
          "internalType": "bytes32[]",
          "name": "overrideAssetIds",
          "type": "bytes32[]"
        },
        {
          "internalType": "address[]",
          "name": "overrideRecipients",
          "type": "address[]"
        }
      ],
      "name": "settlePayout",
      "outputs": [],
      "stateMutability": "nonpayable",
      "type": "function"
    },
    {
      "inputs": [],
      "name": "treasury",
      "outputs": [
        {
          "internalType": "address",
          "name": "",
          "type": "address"
        }
      ],
      "stateMutability": "view",
      "type": "function"
    }
  ],
  "bytecode": "0x60e06040523480156200001157600080fd5b506040516200138d3803806200138d8339810160408190526200003491620000de565b6001600160a01b038416620000845760405162461bcd60e51b815260206004820152601260248201527153706c69747465723a20484149207a65726f60701b604482015260640160405180910390fd5b6001600160a01b0393841660805291831660a052821660c052600080546001600160a01b031990811633179091556001805492909316911617905562000146565b6001600160a01b0381168114620000db57600080fd5b50565b60008060008060808587031215620000f557600080fd5b84516200010281620000c5565b60208601519094506200011581620000c5565b60408601519093506200012881620000c5565b60608601519092506200013b81620000c5565b939692955090935050565b60805160a05160c0516111fb620001926000396000818161016e01526103ae0152600081816101ef01526103020152600081816101c8015281816104b701526108ab01526111fb6000f3fe608060405234801561001057600080fd5b50600436106100b45760003560e01c80637b103999116100715780637b10399914610169578063917de51614610190578063994f2ab4146101c35780639e6b20f1146101ea578063ab033ea914610211578063f0f442601461022457600080fd5b80630df72f1c146100b9578063249d39e9146100ce57806347790199146100ef5780635aa6e675146101305780635bd4cb571461014357806361d027b314610156575b600080fd5b6100cc6100c7366004610bae565b610237565b005b6100d761271081565b60405161ffff90911681526020015b60405180910390f35b6101186100fd366004610bde565b6003602052600090815260409020546001600160a01b031681565b6040516001600160a01b0390911681526020016100e6565b600054610118906001600160a01b031681565b6100cc610151366004610c43565b6102ba565b600154610118906001600160a01b031681565b6101187f000000000000000000000000000000000000000000000000000000000000000081565b6101b361019e366004610bde565b60026020526000908152604090205460ff1681565b60405190151581526020016100e6565b6101187f000000000000000000000000000000000000000000000000000000000000000081565b6101187f000000000000000000000000000000000000000000000000000000000000000081565b6100cc61021f366004610cf9565b6106e4565b6100cc610232366004610cf9565b6107ac565b6000546001600160a01b03163314610261576040516282b42960e81b815260040160405180910390fd5b60008281526003602052604080822080546001600160a01b0319166001600160a01b0385169081179091559051909184917f3335d5b2c02a1ce83a439a97bba40f816764e10c580a01b9e09e6c532821387f9190a35050565b60008881526002602052604090205460ff16156102e95760405162560ff960e81b815260040160405180910390fd5b604051630fe11ab360e01b8152600481018990526000907f00000000000000000000000000000000000000000000000000000000000000006001600160a01b031690630fe11ab39060240160e060405180830381865afa158015610351573d6000803e3d6000fd5b505050506040513d601f19601f820116820180604052508101906103759190610e02565b60008a815260026020526040808220805460ff191660011790558251905163bc62a9c360e01b8152929350909182916001600160a01b037f0000000000000000000000000000000000000000000000000000000000000000169163bc62a9c3916103e59160040190815260200190565b600060405180830381865afa158015610402573d6000803e3d6000fd5b505050506040513d6000823e601f3d908101601f1916820160405261042a9190810190610fcc565b915091508160600151156104855760405162461bcd60e51b815260206004820152601a60248201527f53706c69747465723a20776f726b666c6f7720666c616767656400000000000060448201526064015b60405180910390fd5b604082810151606085015191516370a0823160e01b815230600482015290916bffffffffffffffffffffffff169081907f00000000000000000000000000000000000000000000000000000000000000006001600160a01b0316906370a0823190602401602060405180830381865afa158015610506573d6000803e3d6000fd5b505050506040513d601f19601f8201168201806040525081019061052a919061110d565b10156105785760405162461bcd60e51b815260206004820152601e60248201527f53706c69747465723a20696e73756666696369656e742062616c616e63650000604482015260640161047c565b835182516105a29190612710906105939061ffff168561113c565b61059d9190611159565b610820565b6040820151600090612710906105bc9061ffff168461113c565b6105c69190611159565b905080156105d8576105d88d82610820565b61060a8461271061ffff16856020015161ffff16856105f7919061113c565b6106019190611159565b8c8c8c8c61096e565b6106398c8c61271061ffff16866060015161ffff168661062a919061113c565b6106349190611159565b610acf565b6080830151600090612710906106539061ffff168561113c565b61065d9190611159565b905060008111801561067957506001546001600160a01b031615155b1561069457600154610694906001600160a01b031682610820565b86600001518f7f1c7951ddce348f3c29e721c33f5fd74980fc75e10a3014a9624945f865551dd6856040516106cb91815260200190565b60405180910390a3505050505050505050505050505050565b6000546001600160a01b0316331461070e576040516282b42960e81b815260040160405180910390fd5b6001600160a01b0381166107645760405162461bcd60e51b815260206004820152601960248201527f53706c69747465723a207a65726f20676f7665726e616e636500000000000000604482015260640161047c565b600080546001600160a01b0319166001600160a01b038316908117825560405190917f9d3e522e1e47a2f6009739342b9cc7b252a1888154e843ab55ee1c81745795ab91a250565b6000546001600160a01b031633146107d6576040516282b42960e81b815260040160405180910390fd5b600180546001600160a01b0319166001600160a01b0383169081179091556040517f7dae230f18360d76a040c81f050aa14eb9d6dc7901b20fc5d855e2a20fe814d190600090a250565b8060000361082c575050565b6001600160a01b0382166108825760405162461bcd60e51b815260206004820152601760248201527f53706c69747465723a207472616e73666572207a65726f000000000000000000604482015260640161047c565b60405163a9059cbb60e01b81526001600160a01b038381166004830152602482018390526000917f00000000000000000000000000000000000000000000000000000000000000009091169063a9059cbb906044016020604051808303816000875af11580156108f6573d6000803e3d6000fd5b505050506040513d601f19601f8201168201806040525081019061091a919061117b565b9050806109695760405162461bcd60e51b815260206004820152601960248201527f53706c69747465723a207472616e73666572206661696c656400000000000000604482015260640161047c565b505050565b84158061097a57508551155b610ac75782811461099e576040516326d2b03560e11b815260040160405180910390fd5b60005b8651811015610ac55760008782815181106109be576109be611196565b60209081029190910181015180516000908152600390925260408220549092506001600160a01b0316905b86811015610a51578251888883818110610a0557610a05611196565b9050602002013503610a3f57858582818110610a2357610a23611196565b9050602002016020810190610a389190610cf9565b9150610a51565b80610a49816111ac565b9150506109e9565b506001600160a01b038116610a79576040516350e9a53760e01b815260040160405180910390fd5b602082015160009061271090610a939061ffff168b61113c565b610a9d9190611159565b90508015610aaf57610aaf8282610820565b5050508080610abd906111ac565b9150506109a1565b505b505050505050565b801580610ada575081155b15610ae457505050565b6000610af08383611159565b905060008111610b425760405162461bcd60e51b815260206004820152601e60248201527f53706c69747465723a2076616c696461746f72207368617265207a65726f0000604482015260640161047c565b60005b83811015610b8f57610b7d858583818110610b6257610b62611196565b9050602002016020810190610b779190610cf9565b83610820565b80610b87816111ac565b915050610b45565b5050505050565b6001600160a01b0381168114610bab57600080fd5b50565b60008060408385031215610bc157600080fd5b823591506020830135610bd381610b96565b809150509250929050565b600060208284031215610bf057600080fd5b5035919050565b60008083601f840112610c0957600080fd5b50813567ffffffffffffffff811115610c2157600080fd5b6020830191508360208260051b8501011115610c3c57600080fd5b9250929050565b60008060008060008060008060a0898b031215610c5f57600080fd5b883597506020890135610c7181610b96565b9650604089013567ffffffffffffffff80821115610c8e57600080fd5b610c9a8c838d01610bf7565b909850965060608b0135915080821115610cb357600080fd5b610cbf8c838d01610bf7565b909650945060808b0135915080821115610cd857600080fd5b50610ce58b828c01610bf7565b999c989b5096995094979396929594505050565b600060208284031215610d0b57600080fd5b8135610d1681610b96565b9392505050565b634e487b7160e01b600052604160045260246000fd5b60405160e0810167ffffffffffffffff81118282101715610d5657610d56610d1d565b60405290565b60405160a0810167ffffffffffffffff81118282101715610d5657610d56610d1d565b6040805190810167ffffffffffffffff81118282101715610d5657610d56610d1d565b604051601f8201601f1916810167ffffffffffffffff81118282101715610dcb57610dcb610d1d565b604052919050565b805167ffffffffffffffff81168114610deb57600080fd5b919050565b805161ffff81168114610deb57600080fd5b600060e08284031215610e1457600080fd5b610e1c610d33565b825181526020830151610e2e81610b96565b60208201526040830151610e4181610b96565b604082015260608301516bffffffffffffffffffffffff81168114610e6557600080fd5b6060820152610e7660808401610dd3565b6080820152610e8760a08401610df0565b60a082015260c083015160c08201528091505092915050565b600060a08284031215610eb257600080fd5b610eba610d5c565b9050610ec582610df0565b8152610ed360208301610df0565b6020820152610ee460408301610df0565b6040820152610ef560608301610df0565b6060820152610f0660808301610df0565b608082015292915050565b80518015158114610deb57600080fd5b600082601f830112610f3257600080fd5b8151602067ffffffffffffffff821115610f4e57610f4e610d1d565b610f5c818360051b01610da2565b82815260069290921b84018101918181019086841115610f7b57600080fd5b8286015b84811015610fc15760408189031215610f985760008081fd5b610fa0610d7f565b81518152610faf858301610df0565b81860152835291830191604001610f7f565b509695505050505050565b60008060408385031215610fdf57600080fd5b825167ffffffffffffffff80821115610ff757600080fd5b90840190610120828703121561100c57600080fd5b611014610d5c565b825161101f81610b96565b81526020838101518381111561103457600080fd5b8401601f8101891361104557600080fd5b80518481111561105757611057610d1d565b611069601f8201601f19168401610da2565b8181528a8483850101111561107d57600080fd5b60005b8281101561109b578381018501518282018601528401611080565b50600084838301015280848601525050506110b98860408601610ea0565b60408301526110ca60e08501610f11565b60608301526110dc6101008501610dd3565b60808301528601519094509150808211156110f657600080fd5b5061110385828601610f21565b9150509250929050565b60006020828403121561111f57600080fd5b5051919050565b634e487b7160e01b600052601160045260246000fd5b808202811582820484141761115357611153611126565b92915050565b60008261117657634e487b7160e01b600052601260045260246000fd5b500490565b60006020828403121561118d57600080fd5b610d1682610f11565b634e487b7160e01b600052603260045260246000fd5b6000600182016111be576111be611126565b506001019056fea26469706673582212203f9af90c1f64ea3115840beff646f63388ccb839932e582bc8d2c9477914671564736f6c63430008140033",
  "linkReferences": {},
  "deployedLinkReferences": {}
}