{
  "_format": "hh-sol-artifact-1",
  "contractName": "StakingManager",
  "sourceName": "contracts/StakingManager.sol",
  "abi": [
    {
      "inputs": [
        {
          "internalType": "contract HAI",
          "name": "haiToken",
          "type": "address"
        },
        {
          "internalType": "uint256",
          "name": "nodeStake",
          "type": "uint256"
        },
        {
          "internalType": "uint256",
          "name": "validatorStake",
          "type": "uint256"
        },
        {
          "internalType": "uint256",
          "name": "cooldown",
          "type": "uint256"
        }
      ],
      "stateMutability": "nonpayable",
      "type": "constructor"
    },
    {
      "inputs": [],
      "name": "CooldownActive",
      "type": "error"
    },
    {
      "inputs": [],
      "name": "InsufficientStake",
      "type": "error"
    },
    {
      "inputs": [],
      "name": "InvalidRole",
      "type": "error"
    },
    {
      "inputs": [],
      "name": "Unauthorized",
      "type": "error"
    },
    {
      "anonymous": false,
      "inputs": [
        {
          "indexed": true,
          "internalType": "address",
          "name": "newGovernance",
          "type": "address"
        }
      ],
      "name": "GovernanceUpdated",
      "type": "event"
    },
    {
      "anonymous": false,
      "inputs": [
        {
          "indexed": false,
          "internalType": "uint256",
          "name": "minNodeStake",
          "type": "uint256"
        },
        {
          "indexed": false,
          "internalType": "uint256",
          "name": "minValidatorStake",
          "type": "uint256"
        },
        {
          "indexed": false,
          "internalType": "uint256",
          "name": "unbondingPeriod",
          "type": "uint256"
        }
      ],
      "name": "ParametersUpdated",
      "type": "event"
    },
    {
      "anonymous": false,
      "inputs": [
        {
          "indexed": true,
          "internalType": "address",
          "name": "operator",
          "type": "address"
        },
        {
          "indexed": true,
          "internalType": "enum StakingManager.Role",
          "name": "role",
          "type": "uint8"
        },
        {
          "indexed": false,
          "internalType": "uint256",
          "name": "newAmount",
          "type": "uint256"
        }
      ],
      "name": "StakeBonded",
      "type": "event"
    },
    {
      "anonymous": false,
      "inputs": [
        {
          "indexed": true,
          "internalType": "address",
          "name": "operator",
          "type": "address"
        },
        {
          "indexed": false,
          "internalType": "uint256",
          "name": "penalty",
          "type": "uint256"
        },
        {
          "indexed": true,
          "internalType": "address",
          "name": "recipient",
          "type": "address"
        }
      ],
      "name": "StakeSlashed",
      "type": "event"
    },
    {
      "anonymous": false,
      "inputs": [
        {
          "indexed": true,
          "internalType": "address",
          "name": "operator",
          "type": "address"
        },
        {
          "indexed": false,
          "internalType": "uint256",
          "name": "unlockTimestamp",
          "type": "uint256"
        }
      ],
      "name": "StakeUnbondRequested",
      "type": "event"
    },
    {
      "anonymous": false,
      "inputs": [
        {
          "indexed": true,
          "internalType": "address",
          "name": "operator",
          "type": "address"
        },
        {
          "indexed": false,
          "internalType": "uint256",
          "name": "amount",
          "type": "uint256"
        }
      ],
      "name": "StakeWithdrawn",
      "type": "event"
    },
    {
      "inputs": [
        {
          "internalType": "uint256",
          "name": "amount",
          "type": "uint256"
        },
        {
          "internalType": "enum StakingManager.Role",
          "name": "role",
          "type": "uint8"
        }
      ],
      "name": "bondStake",
      "outputs": [],
      "stateMutability": "nonpayable",
      "type": "function"
    },
    {
      "inputs": [],
      "name": "governance",
      "outputs": [
        {
          "internalType": "address",
          "name": "",
          "type": "address"
        }
      ],
      "stateMutability": "view",
      "type": "function"
    },
    {
      "inputs": [],
      "name": "hai",
      "outputs": [
        {
          "internalType": "contract HAI",
          "name": "",
          "type": "address"
        }
      ],
      "stateMutability": "view",
      "type": "function"
    },
    {
      "inputs": [],
      "name": "minNodeStake",
      "outputs": [
        {
          "internalType": "uint256",
          "name": "",
          "type": "uint256"
        }
      ],
      "stateMutability": "view",
      "type": "function"
    },
    {
      "inputs": [],
      "name": "minValidatorStake",
      "outputs": [
        {
          "internalType": "uint256",
          "name": "",
          "type": "uint256"
        }
      ],
      "stateMutability": "view",
      "type": "function"
    },
    {
      "inputs": [],
      "name": "requestUnbond",
      "outputs": [],
      "stateMutability": "nonpayable",
      "type": "function"
    },
    {
      "inputs": [
        {
          "internalType": "address",
          "name": "newGovernance",
          "type": "address"
        }
      ],
      "name": "setGovernance",
      "outputs": [],
      "stateMutability": "nonpayable",
      "type": "function"
    },
    {
      "inputs": [
        {
          "internalType": "uint256",
          "name": "nodeStake",
          "type": "uint256"
        },
        {
          "internalType": "uint256",
          "name": "validatorStake",
          "type": "uint256"
        },
        {
          "internalType": "uint256",
          "name": "cooldown",
          "type": "uint256"
        }
      ],
      "name": "setParameters",
      "outputs": [],
      "stateMutability": "nonpayable",
      "type": "function"
    },
    {
      "inputs": [
        {
          "internalType": "address",
          "name": "operator",
          "type": "address"
        },
        {
          "internalType": "uint256",
          "name": "penalty",
          "type": "uint256"
        },
        {
          "internalType": "address",
          "name": "recipient",
          "type": "address"
        }
      ],
      "name": "slash",
      "outputs": [],
      "stateMutability": "nonpayable",
      "type": "function"
    },
    {
      "inputs": [
        {
          "internalType": "address",
          "name": "",
          "type": "address"
        }
      ],
      "name": "stakes",
      "outputs": [
        {
          "internalType": "uint256",
          "name": "amount",
          "type": "uint256"
        },
        {
          "internalType": "uint256",
          "name": "unlockTimestamp",
          "type": "uint256"
        },
        {
          "internalType": "enum StakingManager.Role",
          "name": "role",
          "type": "uint8"
        },
        {
          "internalType": "bool",
          "name": "active",
          "type": "bool"
        }
      ],
      "stateMutability": "view",
      "type": "function"
    },
    {
      "inputs": [],
      "name": "unbondingPeriod",
      "outputs": [
        {
          "internalType": "uint256",
          "name": "",
          "type": "uint256"
        }
      ],
      "stateMutability": "view",
      "type": "function"
    },
    {
      "inputs": [],
      "name": "withdrawStake",
      "outputs": [],
      "stateMutability": "nonpayable",
      "type": "function"
    }
  ],
  "bytecode": "0x60a060405234801561001057600080fd5b50604051610cfd380380610cfd83398101604081905261002f916100ae565b6001600160a01b03841661007d5760405162461bcd60e51b81526020600482015260116024820152705374616b696e673a20484149207a65726f60781b604482015260640160405180910390fd5b6001600160a01b03909316608052600080546001600160a01b031916331790556001919091556002556003556100f9565b600080600080608085870312156100c457600080fd5b84516001600160a01b03811681146100db57600080fd5b60208601516040870151606090970151919890975090945092505050565b608051610bd4610129600039600081816101770152818161047f0152818161064101526108f40152610bd46000f3fe608060405234801561001057600080fd5b50600436106100b45760003560e01c8063994f2ab411610071578063994f2ab414610172578063a52b48a814610199578063ab033ea9146101a1578063bed9d861146101b4578063bfac5990146101bc578063cf33c1f2146101cf57600080fd5b8063017ddd35146100b957806316934fc4146100d557806334c5d2ce146101205780634021a412146101355780635aa6e6751461013e5780636cf6d67514610169575b600080fd5b6100c260025481565b6040519081526020015b60405180910390f35b6101106100e3366004610a23565b60046020526000908152604090208054600182015460029092015490919060ff8082169161010090041684565b6040516100cc9493929190610a5b565b61013361012e366004610a9e565b6101e2565b005b6100c260015481565b600054610151906001600160a01b031681565b6040516001600160a01b0390911681526020016100cc565b6100c260035481565b6101517f000000000000000000000000000000000000000000000000000000000000000081565b610133610261565b6101336101af366004610a23565b6102f3565b6101336103c0565b6101336101ca366004610aca565b610575565b6101336101dd366004610b06565b610753565b6000546001600160a01b0316331461020c576040516282b42960e81b815260040160405180910390fd5b60018390556002829055600381905560408051848152602081018490529081018290527f4dd522c050b46ef5e852ea87e7cd136b049dcb37740ad38386fbbb5cd30aa9249060600160405180910390a1505050565b3360009081526004602052604090206002810154610100900460ff1661029a576040516378de4a6960e11b815260040160405180910390fd5b60028101805461ff00191690556003546102b49042610b50565b6001820181905560405190815233907f1bbeee7b21ef87e539ea698241c7b694646c58ff76327516c4c8fe4ff671a6189060200160405180910390a250565b6000546001600160a01b0316331461031d576040516282b42960e81b815260040160405180910390fd5b6001600160a01b0381166103785760405162461bcd60e51b815260206004820152601860248201527f5374616b696e673a207a65726f20676f7665726e616e6365000000000000000060448201526064015b60405180910390fd5b600080546001600160a01b0319166001600160a01b038316908117825560405190917f9d3e522e1e47a2f6009739342b9cc7b252a1888154e843ab55ee1c81745795ab91a250565b3360009081526004602052604090206002810154610100900460ff16156103fa5760405163aa9a98df60e01b815260040160405180910390fd5b805460000361041c576040516378de4a6960e11b815260040160405180910390fd5b80600101544210156104415760405163aa9a98df60e01b815260040160405180910390fd5b8054600080835560028301805460ff191690556001830181905560405163a9059cbb60e01b8152336004820152602481018390526001600160a01b037f0000000000000000000000000000000000000000000000000000000000000000169063a9059cbb906044016020604051808303816000875af11580156104c8573d6000803e3d6000fd5b505050506040513d601f19601f820116820180604052508101906104ec9190610b69565b90508061053b5760405162461bcd60e51b815260206004820152601860248201527f5374616b696e673a207769746864726177206661696c65640000000000000000604482015260640161036f565b60405182815233907f8108595eb6bad3acefa9da467d90cc2217686d5c5ac85460f8b7849c840645fc9060200160405180910390a2505050565b6000546001600160a01b0316331461059f576040516282b42960e81b815260040160405180910390fd5b6001600160a01b038316600090815260046020526040902080548311156105d9576040516378de4a6960e11b815260040160405180910390fd5b6001600160a01b0382166105ff576040516282b42960e81b815260040160405180910390fd5b828160000160008282546106139190610b8b565b909155505060405163a9059cbb60e01b81526001600160a01b038381166004830152602482018590526000917f00000000000000000000000000000000000000000000000000000000000000009091169063a9059cbb906044016020604051808303816000875af115801561068c573d6000803e3d6000fd5b505050506040513d601f19601f820116820180604052508101906106b09190610b69565b9050806106ff5760405162461bcd60e51b815260206004820152601e60248201527f5374616b696e673a20736c617368207472616e73666572206661696c65640000604482015260640161036f565b826001600160a01b0316856001600160a01b03167f99c2ad56961cb3daf3b2b5a5a6c65dc490d85f92aa5a3974aa5e42ad715574b48660405161074491815260200190565b60405180910390a35050505050565b600181600281111561076757610767610a45565b141580156107875750600281600281111561078457610784610a45565b14155b156107a557604051636caa20b560e11b815260040160405180910390fd5b816000036107c6576040516378de4a6960e11b815260040160405180910390fd5b3360009081526004602052604090206002810154610100900460ff1661082757818160020160006101000a81548160ff0219169083600281111561080c5761080c610a45565b021790555060028101805461ff001916610100179055610870565b81600281111561083957610839610a45565b60028083015460ff169081111561085257610852610a45565b1461087057604051636caa20b560e11b815260040160405180910390fd5b8054600090610880908590610b50565b80835590506000600184600281111561089b5761089b610a45565b146108a8576002546108ac565b6001545b9050808210156108cf576040516378de4a6960e11b815260040160405180910390fd5b6040516323b872dd60e01b8152336004820152306024820152604481018690526000907f00000000000000000000000000000000000000000000000000000000000000006001600160a01b0316906323b872dd906064016020604051808303816000875af1158015610945573d6000803e3d6000fd5b505050506040513d601f19601f820116820180604052508101906109699190610b69565b9050806109b85760405162461bcd60e51b815260206004820152601860248201527f5374616b696e673a207472616e73666572206661696c65640000000000000000604482015260640161036f565b8460028111156109ca576109ca610a45565b60405184815233907f9c2aa68000ac343da6c7a58c661daeae619d6c90e0dd4d31e4d097238116c4559060200160405180910390a3505050505050565b80356001600160a01b0381168114610a1e57600080fd5b919050565b600060208284031215610a3557600080fd5b610a3e82610a07565b9392505050565b634e487b7160e01b600052602160045260246000fd5b848152602081018490526080810160038410610a8757634e487b7160e01b600052602160045260246000fd5b836040830152821515606083015295945050505050565b600080600060608486031215610ab357600080fd5b505081359360208301359350604090920135919050565b600080600060608486031215610adf57600080fd5b610ae884610a07565b925060208401359150610afd60408501610a07565b90509250925092565b60008060408385031215610b1957600080fd5b82359150602083013560038110610b2f57600080fd5b809150509250929050565b634e487b7160e01b600052601160045260246000fd5b80820180821115610b6357610b63610b3a565b92915050565b600060208284031215610b7b57600080fd5b81518015158114610a3e57600080fd5b81810381811115610b6357610b63610b3a56fea26469706673582212202e7bcb1fa7abfa94be80e27f8d09b7c755c182767442385574cfe3f43f8174d364736f6c63430008140033",
  "linkReferences": {},
  "deployedLinkReferences": {}
}