{"contracts/PayoutSplitter.sol":{"PayoutSplitter":{"abi":[{"inputs":[{"internalType":"contract HAI","name":"haiToken","type":"address"},{"internalType":"contract ExecutionLog","name":"log","type":"address"},{"internalType":"contract WorkflowRegistry","name":"reg","type":"address"},{"internalType":"address","name":"initialTreasury","type":"address"}],"stateMutability":"nonpayable","type":"constructor"},{"inputs":[],"name":"AlreadySettled","type":"error"},{"inputs":[],"name":"InvalidOverrides","type":"error"},{"inputs":[],"name":"MissingRecipient","type":"error"},{"inputs":[],"name":"Unauthorized","type":"error"},{"anonymous":false,"inputs":[{"indexed":true,"internalType":"bytes32","name":"assetId","type":"bytes32"},{"indexed":true,"internalType":"address","name":"recipient","type":"address"}],"name":"AssetRecipientUpdated","type":"event"},{"anonymous":false,"inputs":[{"indexed":true,"internalType":"address","name":"newGovernance","type":"address"}],"name":"GovernanceUpdated","type":"event"},{"anonymous":false,"inputs":[{"indexed":true,"internalType":"bytes32","name":"jobId","type":"bytes32"},{"indexed":true,"internalType":"bytes32","name":"workflowId","type":"bytes32"},{"indexed":false,"internalType":"uint256","name":"totalFee","type":"uint256"}],"name":"PayoutSettled","type":"event"},{"anonymous":false,"inputs":[{"indexed":true,"internalType":"address","name":"newTreasury","type":"address"}],"name":"TreasuryUpdated","type":"event"},{"inputs":[],"name":"BPS","outputs":[{"internalType":"uint16","name":"","type":"uint16"}],"stateMutability":"view","type":"function"},{"inputs":[{"internalType":"bytes32","name":"","type":"bytes32"}],"name":"assetRecipient","outputs":[{"internalType":"address","name":"","type":"address"}],"stateMutability":"view","type":"function"},{"inputs":[],"name":"executionLog","outputs":[{"internalType":"contract ExecutionLog","name":"","type":"address"}],"stateMutability":"view","type":"function"},{"inputs":[],"name":"governance","outputs":[{"internalType":"address","name":"","type":"address"}],"stateMutability":"view","type":"function"},{"inputs":[],"name":"hai","outputs":[{"internalType":"contract HAI","name":"","type":"address"}],"stateMutability":"view","type":"function"},{"inputs":[{"internalType":"bytes32","name":"","type":"bytes32"}],"name":"jobSettled","outputs":[{"internalType":"bool","name":"","type":"bool"}],"stateMutability":"view","type":"function"},{"inputs":[],"name":"registry","outputs":[{"internalType":"contract WorkflowRegistry","name":"","type":"address"}],"stateMutability":"view","type":"function"},{"inputs":[{"internalType":"bytes32","name":"assetId","type":"bytes32"},{"internalType":"address","name":"recipient","type":"address"}],"name":"setAssetRecipient","outputs":[],"stateMutability":"nonpayable","type":"function"},{"inputs":[{"internalType":"address","name":"newGovernance","type":"address"}],"name":"setGovernance","outputs":[],"stateMutability":"nonpayable","type":"function"},{"inputs":[{"internalType":"address","name":"newTreasury","type":"address"}],"name":"setTreasury","outputs":[],"stateMutability":"nonpayable","type":"function"},{"inputs":[{"internalType":"bytes32","name":"jobId","type":"bytes32"},{"internalType":"address","name":"nodeRecipient","type":"address"},{"internalType":"address[]","name":"validatorRecipients","type":"address[]"},{"internalType":"bytes32[]","name":"overrideAssetIds","type":"bytes32[]"},{"internalType":"address[]","name":"overrideRecipients","type":"address[]"}],"name":"settlePayout","outputs":[],"stateMutability":"nonpayable","type":"function"},{"inputs":[],"name":"treasury","outputs":[{"internalType":"address","name":"","type":"address"}],"stateMutability":"view","type":"function"}],"evm":{"bytecode":{"linkReferences":{},"object":"60e06040523480156200001157600080fd5b506040516200138d3803806200138d8339810160408190526200003491620000de565b6001600160a01b038416620000845760405162461bcd60e51b815260206004820152601260248201527153706c69747465723a20484149207a65726f60701b604482015260640160405180910390fd5b6001600160a01b0393841660805291831660a052821660c052600080546001600160a01b031990811633179091556001805492909316911617905562000146565b6001600160a01b0381168114620000db57600080fd5b50565b60008060008060808587031215620000f557600080fd5b84516200010281620000c5565b60208601519094506200011581620000c5565b60408601519093506200012881620000c5565b60608601519092506200013b81620000c5565b939692955090935050565b60805160a05160c0516111fb620001926000396000818161016e01526103ae0152600081816101ef01526103020152600081816101c8015281816104b701526108ab01526111fb6000f3fe608060405234801561001057600080fd5b50600436106100b45760003560e01c80637b103999116100715780637b10399914610169578063917de51614610190578063994f2ab4146101c35780639e6b20f1146101ea578063ab033ea914610211578063f0f442601461022457600080fd5b80630df72f1c146100b9578063249d39e9146100ce57806347790199146100ef5780635aa6e675146101305780635bd4cb571461014357806361d027b314610156575b600080fd5b6100cc6100c7366004610bae565b610237565b005b6100d761271081565b60405161ffff90911681526020015b60405180910390f35b6101186100fd366004610bde565b6003602052600090815260409020546001600160a01b031681565b6040516001600160a01b0390911681526020016100e6565b600054610118906001600160a01b031681565b6100cc610151366004610c43565b6102ba565b600154610118906001600160a01b031681565b6101187f000000000000000000000000000000000000000000000000000000000000000081565b6101b361019e366004610bde565b60026020526000908152604090205460ff1681565b60405190151581526020016100e6565b6101187f000000000000000000000000000000000000000000000000000000000000000081565b6101187f000000000000000000000000000000000000000000000000000000000000000081565b6100cc61021f366004610cf9565b6106e4565b6100cc610232366004610cf9565b6107ac565b6000546001600160a01b03163314610261576040516282b42960e81b815260040160405180910390fd5b60008281526003602052604080822080546001600160a01b0319166001600160a01b0385169081179091559051909184917f3335d5b2c02a1ce83a439a97bba40f816764e10c580a01b9e09e6c532821387f9190a35050565b60008881526002602052604090205460ff16156102e95760405162560ff960e81b815260040160405180910390fd5b604051630fe11ab360e01b8152600481018990526000907f00000000000000000000000000000000000000000000000000000000000000006001600160a01b031690630fe11ab39060240160e060405180830381865afa158015610351573d6000803e3d6000fd5b505050506040513d601f19601f820116820180604052508101906103759190610e02565b60008a815260026020526040808220805460ff191660011790558251905163bc62a9c360e01b8152929350909182916001600160a01b037f0000000000000000000000000000000000000000000000000000000000000000169163bc62a9c3916103e59160040190815260200190565b600060405180830381865afa158015610402573d6000803e3d6000fd5b505050506040513d6000823e601f3d908101601f1916820160405261042a9190810190610fcc565b915091508160600151156104855760405162461bcd60e51b815260206004820152601a60248201527f53706c69747465723a20776f726b666c6f7720666c616767656400000000000060448201526064015b60405180910390fd5b604082810151606085015191516370a0823160e01b815230600482015290916bffffffffffffffffffffffff169081907f00000000000000000000000000000000000000000000000000000000000000006001600160a01b0316906370a0823190602401602060405180830381865afa158015610506573d6000803e3d6000fd5b505050506040513d601f19601f8201168201806040525081019061052a919061110d565b10156105785760405162461bcd60e51b815260206004820152601e60248201527f53706c69747465723a20696e73756666696369656e742062616c616e63650000604482015260640161047c565b835182516105a29190612710906105939061ffff168561113c565b61059d9190611159565b610820565b6040820151600090612710906105bc9061ffff168461113c565b6105c69190611159565b905080156105d8576105d88d82610820565b61060a8461271061ffff16856020015161ffff16856105f7919061113c565b6106019190611159565b8c8c8c8c61096e565b6106398c8c61271061ffff16866060015161ffff168661062a919061113c565b6106349190611159565b610acf565b6080830151600090612710906106539061ffff168561113c565b61065d9190611159565b905060008111801561067957506001546001600160a01b031615155b1561069457600154610694906001600160a01b031682610820565b86600001518f7f1c7951ddce348f3c29e721c33f5fd74980fc75e10a3014a9624945f865551dd6856040516106cb91815260200190565b60405180910390a3505050505050505050505050505050565b6000546001600160a01b0316331461070e576040516282b42960e81b815260040160405180910390fd5b6001600160a01b0381166107645760405162461bcd60e51b815260206004820152601960248201527f53706c69747465723a207a65726f20676f7665726e616e636500000000000000604482015260640161047c565b600080546001600160a01b0319166001600160a01b038316908117825560405190917f9d3e522e1e47a2f6009739342b9cc7b252a1888154e843ab55ee1c81745795ab91a250565b6000546001600160a01b031633146107d6576040516282b42960e81b815260040160405180910390fd5b600180546001600160a01b0319166001600160a01b0383169081179091556040517f7dae230f18360d76a040c81f050aa14eb9d6dc7901b20fc5d855e2a20fe814d190600090a250565b8060000361082c575050565b6001600160a01b0382166108825760405162461bcd60e51b815260206004820152601760248201527f53706c69747465723a207472616e73666572207a65726f000000000000000000604482015260640161047c565b60405163a9059cbb60e01b81526001600160a01b038381166004830152602482018390526000917f00000000000000000000000000000000000000000000000000000000000000009091169063a9059cbb906044016020604051808303816000875af11580156108f6573d6000803e3d6000fd5b505050506040513d601f19601f8201168201806040525081019061091a919061117b565b9050806109695760405162461bcd60e51b815260206004820152601960248201527f53706c69747465723a207472616e73666572206661696c656400000000000000604482015260640161047c565b505050565b84158061097a57508551155b610ac75782811461099e576040516326d2b03560e11b815260040160405180910390fd5b60005b8651811015610ac55760008782815181106109be576109be611196565b60209081029190910181015180516000908152600390925260408220549092506001600160a01b0316905b86811015610a51578251888883818110610a0557610a05611196565b9050602002013503610a3f57858582818110610a2357610a23611196565b9050602002016020810190610a389190610cf9565b9150610a51565b80610a49816111ac565b9150506109e9565b506001600160a01b038116610a79576040516350e9a53760e01b815260040160405180910390fd5b602082015160009061271090610a939061ffff168b61113c565b610a9d9190611159565b90508015610aaf57610aaf8282610820565b5050508080610abd906111ac565b9150506109a1565b505b505050505050565b801580610ada575081155b15610ae457505050565b6000610af08383611159565b905060008111610b425760405162461bcd60e51b815260206004820152601e60248201527f53706c69747465723a2076616c696461746f72207368617265207a65726f0000604482015260640161047c565b60005b83811015610b8f57610b7d858583818110610b6257610b62611196565b9050602002016020810190610b779190610cf9565b83610820565b80610b87816111ac565b915050610b45565b5050505050565b6001600160a01b0381168114610bab57600080fd5b50565b60008060408385031215610bc157600080fd5b823591506020830135610bd381610b96565b809150509250929050565b600060208284031215610bf057600080fd5b5035919050565b60008083601f840112610c0957600080fd5b50813567ffffffffffffffff811115610c2157600080fd5b6020830191508360208260051b8501011115610c3c57600080fd5b9250929050565b60008060008060008060008060a0898b031215610c5f57600080fd5b883597506020890135610c7181610b96565b9650604089013567ffffffffffffffff80821115610c8e57600080fd5b610c9a8c838d01610bf7565b909850965060608b0135915080821115610cb357600080fd5b610cbf8c838d01610bf7565b909650945060808b0135915080821115610cd857600080fd5b50610ce58b828c01610bf7565b999c989b5096995094979396929594505050565b600060208284031215610d0b57600080fd5b8135610d1681610b96565b9392505050565b634e487b7160e01b600052604160045260246000fd5b60405160e0810167ffffffffffffffff81118282101715610d5657610d56610d1d565b60405290565b60405160a0810167ffffffffffffffff81118282101715610d5657610d56610d1d565b6040805190810167ffffffffffffffff81118282101715610d5657610d56610d1d565b604051601f8201601f1916810167ffffffffffffffff81118282101715610dcb57610dcb610d1d565b604052919050565b805167ffffffffffffffff81168114610deb57600080fd5b919050565b805161ffff81168114610deb57600080fd5b600060e08284031215610e1457600080fd5b610e1c610d33565b825181526020830151610e2e81610b96565b60208201526040830151610e4181610b96565b604082015260608301516bffffffffffffffffffffffff81168114610e6557600080fd5b6060820152610e7660808401610dd3565b6080820152610e8760a08401610df0565b60a082015260c083015160c08201528091505092915050565b600060a08284031215610eb257600080fd5b610eba610d5c565b9050610ec582610df0565b8152610ed360208301610df0565b6020820152610ee460408301610df0565b6040820152610ef560608301610df0565b6060820152610f0660808301610df0565b608082015292915050565b80518015158114610deb57600080fd5b600082601f830112610f3257600080fd5b8151602067ffffffffffffffff821115610f4e57610f4e610d1d565b610f5c818360051b01610da2565b82815260069290921b84018101918181019086841115610f7b57600080fd5b8286015b84811015610fc15760408189031215610f985760008081fd5b610fa0610d7f565b81518152610faf858301610df0565b81860152835291830191604001610f7f565b509695505050505050565b60008060408385031215610fdf57600080fd5b825167ffffffffffffffff80821115610ff757600080fd5b90840190610120828703121561100c57600080fd5b611014610d5c565b825161101f81610b96565b81526020838101518381111561103457600080fd5b8401601f8101891361104557600080fd5b80518481111561105757611057610d1d565b611069601f8201601f19168401610da2565b8181528a8483850101111561107d57600080fd5b60005b8281101561109b578381018501518282018601528401611080565b50600084838301015280848601525050506110b98860408601610ea0565b60408301526110ca60e08501610f11565b60608301526110dc6101008501610dd3565b60808301528601519094509150808211156110f657600080fd5b5061110385828601610f21565b9150509250929050565b60006020828403121561111f57600080fd5b5051919050565b634e487b7160e01b600052601160045260246000fd5b808202811582820484141761115357611153611126565b92915050565b60008261117657634e487b7160e01b600052601260045260246000fd5b500490565b60006020828403121561118d57600080fd5b610d1682610f11565b634e487b7160e01b600052603260045260246000fd5b6000600182016111be576111be611126565b506001019056fea26469706673582212203f9af90c1f64ea3115840beff646f63388ccb839932e582bc8d2c9477914671564736f6c63430008140033","opcodes":"PUSH1 0xE0 PUSH1 0x40 MSTORE CALLVALUE DUP1 ISZERO PUSH3 0x11 JUMPI PUSH1 0x0 DUP1 REVERT JUMPDEST POP PUSH1 0x40 MLOAD PUSH3 0x138D CODESIZE SUB DUP1 PUSH3 0x138D DUP4 CODECOPY DUP2 ADD PUSH1 0x40 DUP2 SWAP1 MSTORE PUSH3 0x34 SWAP2 PUSH3 0xDE JUMP JUMPDEST PUSH1 0x1 PUSH1 0x1 PUSH1 0xA0 SHL SUB DUP5 AND PUSH3 0x84 JUMPI PUSH1 0x40 MLOAD PUSH3 0x461BCD PUSH1 0xE5 SHL DUP2 MSTORE PUSH1 0x20 PUSH1 0x4 DUP3 ADD MSTORE PUSH1 0x12 PUSH1 0x24 DUP3 ADD MSTORE PUSH18 0x53706C69747465723A20484149207A65726F PUSH1 0x70 SHL PUSH1 0x44 DUP3 ADD MSTORE PUSH1 0x64 ADD PUSH1 0x40 MLOAD DUP1 SWAP2 SUB SWAP1 REVERT JUMPDEST PUSH1 0x1 PUSH1 0x1 PUSH1 0xA0 SHL SUB SWAP4 DUP5 AND PUSH1 0x80 MSTORE SWAP2 DUP4 AND PUSH1 0xA0 MSTORE DUP3 AND PUSH1 0xC0 MSTORE PUSH1 0x0 DUP1 SLOAD PUSH1 0x1 PUSH1 0x1 PUSH1 0xA0 SHL SUB NOT SWAP1 DUP2 AND CALLER OR SWAP1 SWAP2 SSTORE PUSH1 0x1 DUP1 SLOAD SWAP3 SWAP1 SWAP4 AND SWAP2 AND OR SWAP1 SSTORE PUSH3 0x146 JUMP JUMPDEST PUSH1 0x1 PUSH1 0x1 PUSH1 0xA0 SHL SUB DUP2 AND DUP2 EQ PUSH3 0xDB JUMPI PUSH1 0x0 DUP1 REVERT JUMPDEST POP JUMP JUMPDEST PUSH1 0x0 DUP1 PUSH1 0x0 DUP1 PUSH1 0x80 DUP6 DUP8 SUB SLT ISZERO PUSH3 0xF5 JUMPI PUSH1 0x0 DUP1 REVERT JUMPDEST DUP5 MLOAD PUSH3 0x102 DUP2 PUSH3 0xC5 JUMP JUMPDEST PUSH1 0x20 DUP7 ADD MLOAD SWAP1 SWAP5 POP PUSH3 0x115 DUP2 PUSH3 0xC5 JUMP JUMPDEST PUSH1 0x40 DUP7 ADD MLOAD SWAP1 SWAP4 POP PUSH3 0x128 DUP2 PUSH3 0xC5 JUMP JUMPDEST PUSH1 0x60 DUP7 ADD MLOAD SWAP1 SWAP3 POP PUSH3 0x13B DUP2 PUSH3 0xC5 JUMP JUMPDEST SWAP4 SWAP7 SWAP3 SWAP6 POP SWAP1 SWAP4 POP POP JUMP JUMPDEST PUSH1 0x80 MLOAD PUSH1 0xA0 MLOAD PUSH1 0xC0 MLOAD PUSH2 0x11FB PUSH3 0x192 PUSH1 0x0 CODECOPY PUSH1 0x0 DUP2 DUP2 PUSH2 0x16E ADD MSTORE PUSH2 0x3AE ADD MSTORE PUSH1 0x0 DUP2 DUP2 PUSH2 0x1EF ADD MSTORE PUSH2 0x302 ADD MSTORE PUSH1 0x0 DUP2 DUP2 PUSH2 0x1C8 ADD MSTORE DUP2 DUP2 PUSH2 0x4B7 ADD MSTORE PUSH2 0x8AB ADD MSTORE PUSH2 0x11FB PUSH1 0x0 RETURN INVALID PUSH1 0x80 PUSH1 0x40 MSTORE CALLVALUE DUP1 ISZERO PUSH2 0x10 JUMPI PUSH1 0x0 DUP1 REVERT JUMPDEST POP PUSH1 0x4 CALLDATASIZE LT PUSH2 0xB4 JUMPI PUSH1 0x0 CALLDATALOAD PUSH1 0xE0 SHR DUP1 PUSH4 0x7B103999 GT PUSH2 0x71 JUMPI DUP1 PUSH4 0x7B103999 EQ PUSH2 0x169 JUMPI DUP1 PUSH4 0x917DE516 EQ PUSH2 0x190 JUMPI DUP1 PUSH4 0x994F2AB4 EQ PUSH2 0x1C3 JUMPI DUP1 PUSH4 0x9E6B20F1 EQ PUSH2 0x1EA JUMPI DUP1 PUSH4 0xAB033EA9 EQ PUSH2 0x211 JUMPI DUP1 PUSH4 0xF0F44260 EQ PUSH2 0x224 JUMPI PUSH1 0x0 DUP1 REVERT JUMPDEST DUP1 PUSH4 0xDF72F1C EQ PUSH2 0xB9 JUMPI DUP1 PUSH4 0x249D39E9 EQ PUSH2 0xCE JUMPI DUP1 PUSH4 0x47790199 EQ PUSH2 0xEF JUMPI DUP1 PUSH4 0x5AA6E675 EQ PUSH2 0x130 JUMPI DUP1 PUSH4 0x5BD4CB57 EQ PUSH2 0x143 JUMPI DUP1 PUSH4 0x61D027B3 EQ PUSH2 0x156 JUMPI JUMPDEST PUSH1 0x0 DUP1 REVERT JUMPDEST PUSH2 0xCC PUSH2 0xC7 CALLDATASIZE PUSH1 0x4 PUSH2 0xBAE JUMP JUMPDEST PUSH2 0x237 JUMP JUMPDEST STOP JUMPDEST PUSH2 0xD7 PUSH2 0x2710 DUP2 JUMP JUMPDEST PUSH1 0x40 MLOAD PUSH2 0xFFFF SWAP1 SWAP2 AND DUP2 MSTORE PUSH1 0x20 ADD JUMPDEST PUSH1 0x40 MLOAD DUP1 SWAP2 SUB SWAP1 RETURN JUMPDEST PUSH2 0x118 PUSH2 0xFD CALLDATASIZE PUSH1 0x4 PUSH2 0xBDE JUMP JUMPDEST PUSH1 0x3 PUSH1 0x20 MSTORE PUSH1 0x0 SWAP1 DUP2 MSTORE PUSH1 0x40 SWAP1 KECCAK256 SLOAD PUSH1 0x1 PUSH1 0x1 PUSH1 0xA0 SHL SUB AND DUP2 JUMP JUMPDEST PUSH1 0x40 MLOAD PUSH1 0x1 PUSH1 0x1 PUSH1 0xA0 SHL SUB SWAP1 SWAP2 AND DUP2 MSTORE PUSH1 0x20 ADD PUSH2 0xE6 JUMP JUMPDEST PUSH1 0x0 SLOAD PUSH2 0x118 SWAP1 PUSH1 0x1 PUSH1 0x1 PUSH1 0xA0 SHL SUB AND DUP2 JUMP JUMPDEST PUSH2 0xCC PUSH2 0x151 CALLDATASIZE PUSH1 0x4 PUSH2 0xC43 JUMP JUMPDEST PUSH2 0x2BA JUMP JUMPDEST PUSH1 0x1 SLOAD PUSH2 0x118 SWAP1 PUSH1 0x1 PUSH1 0x1 PUSH1 0xA0 SHL SUB AND DUP2 JUMP JUMPDEST PUSH2 0x118 PUSH32 0x0 DUP2 JUMP JUMPDEST PUSH2 0x1B3 PUSH2 0x19E CALLDATASIZE PUSH1 0x4 PUSH2 0xBDE JUMP JUMPDEST PUSH1 0x2 PUSH1 0x20 MSTORE PUSH1 0x0 SWAP1 DUP2 MSTORE PUSH1 0x40 SWAP1 KECCAK256 SLOAD PUSH1 0xFF AND DUP2 JUMP JUMPDEST PUSH1 0x40 MLOAD SWAP1 ISZERO ISZERO DUP2 MSTORE PUSH1 0x20 ADD PUSH2 0xE6 JUMP JUMPDEST PUSH2 0x118 PUSH32 0x0 DUP2 JUMP JUMPDEST PUSH2 0x118 PUSH32 0x0 DUP2 JUMP JUMPDEST PUSH2 0xCC PUSH2 0x21F CALLDATASIZE PUSH1 0x4 PUSH2 0xCF9 JUMP JUMPDEST PUSH2 0x6E4 JUMP JUMPDEST PUSH2 0xCC PUSH2 0x232 CALLDATASIZE PUSH1 0x4 PUSH2 0xCF9 JUMP JUMPDEST PUSH2 0x7AC JUMP JUMPDEST PUSH1 0x0 SLOAD PUSH1 0x1 PUSH1 0x1 PUSH1 0xA0 SHL SUB AND CALLER EQ PUSH2 0x261 JUMPI PUSH1 0x40 MLOAD PUSH3 0x82B429 PUSH1 0xE8 SHL DUP2 MSTORE PUSH1 0x4 ADD PUSH1 0x40 MLOAD DUP1 SWAP2 SUB SWAP1 REVERT JUMPDEST PUSH1 0x0 DUP3 DUP2 MSTORE PUSH1 0x3 PUSH1 0x20 MSTORE PUSH1 0x40 DUP1 DUP3 KECCAK256 DUP1 SLOAD PUSH1 0x1 PUSH1 0x1 PUSH1 0xA0 SHL SUB NOT AND PUSH1 0x1 PUSH1 0x1 PUSH1 0xA0 SHL SUB DUP6 AND SWAP1 DUP2 OR SWAP1 SWAP2 SSTORE SWAP1 MLOAD SWAP1 SWAP2 DUP5 SWAP2 PUSH32 0x3335D5B2C02A1CE83A439A97BBA40F816764E10C580A01B9E09E6C532821387F SWAP2 SWAP1 LOG3 POP POP JUMP JUMPDEST PUSH1 0x0 DUP9 DUP2 MSTORE PUSH1 0x2 PUSH1 0x20 MSTORE PUSH1 0x40 SWAP1 KECCAK256 SLOAD PUSH1 0xFF AND ISZERO PUSH2 0x2E9 JUMPI PUSH1 0x40 MLOAD PUSH3 0x560FF9 PUSH1 0xE8 SHL DUP2 MSTORE PUSH1 0x4 ADD PUSH1 0x40 MLOAD DUP1 SWAP2 SUB SWAP1 REVERT JUMPDEST PUSH1 0x40 MLOAD PUSH4 0xFE11AB3 PUSH1 0xE0 SHL DUP2 MSTORE PUSH1 0x4 DUP2 ADD DUP10 SWAP1 MSTORE PUSH1 0x0 SWAP1 PUSH32 0x0 PUSH1 0x1 PUSH1 0x1 PUSH1 0xA0 SHL SUB AND SWAP1 PUSH4 0xFE11AB3 SWAP1 PUSH1 0x24 ADD PUSH1 0xE0 PUSH1 0x40 MLOAD DUP1 DUP4 SUB DUP2 DUP7 GAS STATICCALL ISZERO DUP1 ISZERO PUSH2 0x351 JUMPI RETURNDATASIZE PUSH1 0x0 DUP1 RETURNDATACOPY RETURNDATASIZE PUSH1 0x0 REVERT JUMPDEST POP POP POP POP PUSH1 0x40 MLOAD RETURNDATASIZE PUSH1 0x1F NOT PUSH1 0x1F DUP3 ADD AND DUP3 ADD DUP1 PUSH1 0x40 MSTORE POP DUP2 ADD SWAP1 PUSH2 0x375 SWAP2 SWAP1 PUSH2 0xE02 JUMP JUMPDEST PUSH1 0x0 DUP11 DUP2 MSTORE PUSH1 0x2 PUSH1 0x20 MSTORE PUSH1 0x40 DUP1 DUP3 KECCAK256 DUP1 SLOAD PUSH1 0xFF NOT AND PUSH1 0x1 OR SWAP1 SSTORE DUP3 MLOAD SWAP1 MLOAD PUSH4 0xBC62A9C3 PUSH1 0xE0 SHL DUP2 MSTORE SWAP3 SWAP4 POP SWAP1 SWAP2 DUP3 SWAP2 PUSH1 0x1 PUSH1 0x1 PUSH1 0xA0 SHL SUB PUSH32 0x0 AND SWAP2 PUSH4 0xBC62A9C3 SWAP2 PUSH2 0x3E5 SWAP2 PUSH1 0x4 ADD SWAP1 DUP2 MSTORE PUSH1 0x20 ADD SWAP1 JUMP JUMPDEST PUSH1 0x0 PUSH1 0x40 MLOAD DUP1 DUP4 SUB DUP2 DUP7 GAS STATICCALL ISZERO DUP1 ISZERO PUSH2 0x402 JUMPI RETURNDATASIZE PUSH1 0x0 DUP1 RETURNDATACOPY RETURNDATASIZE PUSH1 0x0 REVERT JUMPDEST POP POP POP POP PUSH1 0x40 MLOAD RETURNDATASIZE PUSH1 0x0 DUP3 RETURNDATACOPY PUSH1 0x1F RETURNDATASIZE SWAP1 DUP2 ADD PUSH1 0x1F NOT AND DUP3 ADD PUSH1 0x40 MSTORE PUSH2 0x42A SWAP2 SWAP1 DUP2 ADD SWAP1 PUSH2 0xFCC JUMP JUMPDEST SWAP2 POP SWAP2 POP DUP2 PUSH1 0x60 ADD MLOAD ISZERO PUSH2 0x485 JUMPI PUSH1 0x40 MLOAD PUSH3 0x461BCD PUSH1 0xE5 SHL DUP2 MSTORE PUSH1 0x20 PUSH1 0x4 DUP3 ADD MSTORE PUSH1 0x1A PUSH1 0x24 DUP3 ADD MSTORE PUSH32 0x53706C69747465723A20776F726B666C6F7720666C6167676564000000000000 PUSH1 0x44 DUP3 ADD MSTORE PUSH1 0x64 ADD JUMPDEST PUSH1 0x40 MLOAD DUP1 SWAP2 SUB SWAP1 REVERT JUMPDEST PUSH1 0x40 DUP3 DUP2 ADD MLOAD PUSH1 0x60 DUP6 ADD MLOAD SWAP2 MLOAD PUSH4 0x70A08231 PUSH1 0xE0 SHL DUP2 MSTORE ADDRESS PUSH1 0x4 DUP3 ADD MSTORE SWAP1 SWAP2 PUSH12 0xFFFFFFFFFFFFFFFFFFFFFFFF AND SWAP1 DUP2 SWAP1 PUSH32 0x0 PUSH1 0x1 PUSH1 0x1 PUSH1 0xA0 SHL SUB AND SWAP1 PUSH4 0x70A08231 SWAP1 PUSH1 0x24 ADD PUSH1 0x20 PUSH1 0x40 MLOAD DUP1 DUP4 SUB DUP2 DUP7 GAS STATICCALL ISZERO DUP1 ISZERO PUSH2 0x506 JUMPI RETURNDATASIZE PUSH1 0x0 DUP1 RETURNDATACOPY RETURNDATASIZE PUSH1 0x0 REVERT JUMPDEST POP POP POP POP PUSH1 0x40 MLOAD RETURNDATASIZE PUSH1 0x1F NOT PUSH1 0x1F DUP3 ADD AND DUP3 ADD DUP1 PUSH1 0x40 MSTORE POP DUP2 ADD SWAP1 PUSH2 0x52A SWAP2 SWAP1 PUSH2 0x110D JUMP JUMPDEST LT ISZERO PUSH2 0x578 JUMPI PUSH1 0x40 MLOAD PUSH3 0x461BCD PUSH1 0xE5 SHL DUP2 MSTORE PUSH1 0x20 PUSH1 0x4 DUP3 ADD MSTORE PUSH1 0x1E PUSH1 0x24 DUP3 ADD MSTORE PUSH32 0x53706C69747465723A20696E73756666696369656E742062616C616E63650000 PUSH1 0x44 DUP3 ADD MSTORE PUSH1 0x64 ADD PUSH2 0x47C JUMP JUMPDEST DUP4 MLOAD DUP3 MLOAD PUSH2 0x5A2 SWAP2 SWAP1 PUSH2 0x2710 SWAP1 PUSH2 0x593 SWAP1 PUSH2 0xFFFF AND DUP6 PUSH2 0x113C JUMP JUMPDEST PUSH2 0x59D SWAP2 SWAP1 PUSH2 0x1159 JUMP JUMPDEST PUSH2 0x820 JUMP JUMPDEST PUSH1 0x40 DUP3 ADD MLOAD PUSH1 0x0 SWAP1 PUSH2 0x2710 SWAP1 PUSH2 0x5BC SWAP1 PUSH2 0xFFFF AND DUP5 PUSH2 0x113C JUMP JUMPDEST PUSH2 0x5C6 SWAP2 SWAP1 PUSH2 0x1159 JUMP JUMPDEST SWAP1 POP DUP1 ISZERO PUSH2 0x5D8 JUMPI PUSH2 0x5D8 DUP14 DUP3 PUSH2 0x820 JUMP JUMPDEST PUSH2 0x60A DUP5 PUSH2 0x2710 PUSH2 0xFFFF AND DUP6 PUSH1 0x20 ADD MLOAD PUSH2 0xFFFF AND DUP6 PUSH2 0x5F7 SWAP2 SWAP1 PUSH2 0x113C JUMP JUMPDEST PUSH2 0x601 SWAP2 SWAP1 PUSH2 0x1159 JUMP JUMPDEST DUP13 DUP13 DUP13 DUP13 PUSH2 0x96E JUMP JUMPDEST PUSH2 0x639 DUP13 DUP13 PUSH2 0x2710 PUSH2 0xFFFF AND DUP7 PUSH1 0x60 ADD MLOAD PUSH2 0xFFFF AND DUP7 PUSH2 0x62A SWAP2 SWAP1 PUSH2 0x113C JUMP JUMPDEST PUSH2 0x634 SWAP2 SWAP1 PUSH2 0x1159 JUMP JUMPDEST PUSH2 0xACF JUMP JUMPDEST PUSH1 0x80 DUP4 ADD MLOAD PUSH1 0x0 SWAP1 PUSH2 0x2710 SWAP1 PUSH2 0x653 SWAP1 PUSH2 0xFFFF AND DUP6 PUSH2 0x113C JUMP JUMPDEST PUSH2 0x65D SWAP2 SWAP1 PUSH2 0x1159 JUMP JUMPDEST SWAP1 POP PUSH1 0x0 DUP2 GT DUP1 ISZERO PUSH2 0x679 JUMPI POP PUSH1 0x1 SLOAD PUSH1 0x1 PUSH1 0x1 PUSH1 0xA0 SHL SUB AND ISZERO ISZERO JUMPDEST ISZERO PUSH2 0x694 JUMPI PUSH1 0x1 SLOAD PUSH2 0x694 SWAP1 PUSH1 0x1 PUSH1 0x1 PUSH1 0xA0 SHL SUB AND DUP3 PUSH2 0x820 JUMP JUMPDEST DUP7 PUSH1 0x0 ADD MLOAD DUP16 PUSH32 0x1C7951DDCE348F3C29E721C33F5FD74980FC75E10A3014A9624945F865551DD6 DUP6 PUSH1 0x40 MLOAD PUSH2 0x6CB SWAP2 DUP2 MSTORE PUSH1 0x20 ADD SWAP1 JUMP JUMPDEST PUSH1 0x40 MLOAD DUP1 SWAP2 SUB SWAP1 LOG3 POP POP POP POP POP POP POP POP POP POP POP POP POP POP POP JUMP JUMPDEST PUSH1 0x0 SLOAD PUSH1 0x1 PUSH1 0x1 PUSH1 0xA0 SHL SUB AND CALLER EQ PUSH2 0x70E JUMPI PUSH1 0x40 MLOAD PUSH3 0x82B429 PUSH1 0xE8 SHL DUP2 MSTORE PUSH1 0x4 ADD PUSH1 0x40 MLOAD DUP1 SWAP2 SUB SWAP1 REVERT JUMPDEST PUSH1 0x1 PUSH1 0x1 PUSH1 0xA0 SHL SUB DUP2 AND PUSH2 0x764 JUMPI PUSH1 0x40 MLOAD PUSH3 0x461BCD PUSH1 0xE5 SHL DUP2 MSTORE PUSH1 0x20 PUSH1 0x4 DUP3 ADD MSTORE PUSH1 0x19 PUSH1 0x24 DUP3 ADD MSTORE PUSH32 0x53706C69747465723A207A65726F20676F7665726E616E636500000000000000 PUSH1 0x44 DUP3 ADD MSTORE PUSH1 0x64 ADD PUSH2 0x47C JUMP JUMPDEST PUSH1 0x0 DUP1 SLOAD PUSH1 0x1 PUSH1 0x1 PUSH1 0xA0 SHL SUB NOT AND PUSH1 0x1 PUSH1 0x1 PUSH1 0xA0 SHL SUB DUP4 AND SWAP1 DUP2 OR DUP3 SSTORE PUSH1 0x40 MLOAD SWAP1 SWAP2 PUSH32 0x9D3E522E1E47A2F6009739342B9CC7B252A1888154E843AB55EE1C81745795AB SWAP2 LOG2 POP JUMP JUMPDEST PUSH1 0x0 SLOAD PUSH1 0x1 PUSH1 0x1 PUSH1 0xA0 SHL SUB AND CALLER EQ PUSH2 0x7D6 JUMPI PUSH1 0x40 MLOAD PUSH3 0x82B429 PUSH1 0xE8 SHL DUP2 MSTORE PUSH1 0x4 ADD PUSH1 0x40 MLOAD DUP1 SWAP2 SUB SWAP1 REVERT JUMPDEST PUSH1 0x1 DUP1 SLOAD PUSH1 0x1 PUSH1 0x1 PUSH1 0xA0 SHL SUB NOT AND PUSH1 0x1 PUSH1 0x1 PUSH1 0xA0 SHL SUB DUP4 AND SWAP1 DUP2 OR SWAP1 SWAP2 SSTORE PUSH1 0x40 MLOAD PUSH32 0x7DAE230F18360D76A040C81F050AA14EB9D6DC7901B20FC5D855E2A20FE814D1 SWAP1 PUSH1 0x0 SWAP1 LOG2 POP JUMP JUMPDEST DUP1 PUSH1 0x0 SUB PUSH2 0x82C JUMPI POP POP JUMP JUMPDEST PUSH1 0x1 PUSH1 0x1 PUSH1 0xA0 SHL SUB DUP3 AND PUSH2 0x882 JUMPI PUSH1 0x40 MLOAD PUSH3 0x461BCD PUSH1 0xE5 SHL DUP2 MSTORE PUSH1 0x20 PUSH1 0x4 DUP3 ADD MSTORE PUSH1 0x17 PUSH1 0x24 DUP3 ADD MSTORE PUSH32 0x53706C69747465723A207472616E73666572207A65726F000000000000000000 PUSH1 0x44 DUP3 ADD MSTORE PUSH1 0x64 ADD PUSH2 0x47C JUMP JUMPDEST PUSH1 0x40 MLOAD PUSH4 0xA9059CBB PUSH1 0xE0 SHL DUP2 MSTORE PUSH1 0x1 PUSH1 0x1 PUSH1 0xA0 SHL SUB DUP4 DUP2 AND PUSH1 0x4 DUP4 ADD MSTORE PUSH1 0x24 DUP3 ADD DUP4 SWAP1 MSTORE PUSH1 0x0 SWAP2 PUSH32 0x0 SWAP1 SWAP2 AND SWAP1 PUSH4 0xA9059CBB SWAP1 PUSH1 0x44 ADD PUSH1 0x20 PUSH1 0x40 MLOAD DUP1 DUP4 SUB DUP2 PUSH1 0x0 DUP8 GAS CALL ISZERO DUP1 ISZERO PUSH2 0x8F6 JUMPI RETURNDATASIZE PUSH1 0x0 DUP1 RETURNDATACOPY RETURNDATASIZE PUSH1 0x0 REVERT JUMPDEST POP POP POP POP PUSH1 0x40 MLOAD RETURNDATASIZE PUSH1 0x1F NOT PUSH1 0x1F DUP3 ADD AND DUP3 ADD DUP1 PUSH1 0x40 MSTORE POP DUP2 ADD SWAP1 PUSH2 0x91A SWAP2 SWAP1 PUSH2 0x117B JUMP JUMPDEST SWAP1 POP DUP1 PUSH2 0x969 JUMPI PUSH1 0x40 MLOAD PUSH3 0x461BCD PUSH1 0xE5 SHL DUP2 MSTORE PUSH1 0x20 PUSH1 0x4 DUP3 ADD MSTORE PUSH1 0x19 PUSH1 0x24 DUP3 ADD MSTORE PUSH32 0x53706C69747465723A207472616E73666572206661696C656400000000000000 PUSH1 0x44 DUP3 ADD MSTORE PUSH1 0x64 ADD PUSH2 0x47C JUMP JUMPDEST POP POP POP JUMP JUMPDEST DUP5 ISZERO DUP1 PUSH2 0x97A JUMPI POP DUP6 MLOAD ISZERO JUMPDEST PUSH2 0xAC7 JUMPI DUP3 DUP2 EQ PUSH2 0x99E JUMPI PUSH1 0x40 MLOAD PUSH4 0x26D2B035 PUSH1 0xE1 SHL DUP2 MSTORE PUSH1 0x4 ADD PUSH1 0x40 MLOAD DUP1 SWAP2 SUB SWAP1 REVERT JUMPDEST PUSH1 0x0 JUMPDEST DUP7 MLOAD DUP2 LT ISZERO PUSH2 0xAC5 JUMPI PUSH1 0x0 DUP8 DUP3 DUP2 MLOAD DUP2 LT PUSH2 0x9BE JUMPI PUSH2 0x9BE PUSH2 0x1196 JUMP JUMPDEST PUSH1 0x20 SWAP1 DUP2 MUL SWAP2 SWAP1 SWAP2 ADD DUP2 ADD MLOAD DUP1 MLOAD PUSH1 0x0 SWAP1 DUP2 MSTORE PUSH1 0x3 SWAP1 SWAP3 MSTORE PUSH1 0x40 DUP3 KECCAK256 SLOAD SWAP1 SWAP3 POP PUSH1 0x1 PUSH1 0x1 PUSH1 0xA0 SHL SUB AND SWAP1 JUMPDEST DUP7 DUP2 LT ISZERO PUSH2 0xA51 JUMPI DUP3 MLOAD DUP9 DUP9 DUP4 DUP2 DUP2 LT PUSH2 0xA05 JUMPI PUSH2 0xA05 PUSH2 0x1196 JUMP JUMPDEST SWAP1 POP PUSH1 0x20 MUL ADD CALLDATALOAD SUB PUSH2 0xA3F JUMPI DUP6 DUP6 DUP3 DUP2 DUP2 LT PUSH2 0xA23 JUMPI PUSH2 0xA23 PUSH2 0x1196 JUMP JUMPDEST SWAP1 POP PUSH1 0x20 MUL ADD PUSH1 0x20 DUP2 ADD SWAP1 PUSH2 0xA38 SWAP2 SWAP1 PUSH2 0xCF9 JUMP JUMPDEST SWAP2 POP PUSH2 0xA51 JUMP JUMPDEST DUP1 PUSH2 0xA49 DUP2 PUSH2 0x11AC JUMP JUMPDEST SWAP2 POP POP PUSH2 0x9E9 JUMP JUMPDEST POP PUSH1 0x1 PUSH1 0x1 PUSH1 0xA0 SHL SUB DUP2 AND PUSH2 0xA79 JUMPI PUSH1 0x40 MLOAD PUSH4 0x50E9A537 PUSH1 0xE0 SHL DUP2 MSTORE PUSH1 0x4 ADD PUSH1 0x40 MLOAD DUP1 SWAP2 SUB SWAP1 REVERT JUMPDEST PUSH1 0x20 DUP3 ADD MLOAD PUSH1 0x0 SWAP1 PUSH2 0x2710 SWAP1 PUSH2 0xA93 SWAP1 PUSH2 0xFFFF AND DUP12 PUSH2 0x113C JUMP JUMPDEST PUSH2 0xA9D SWAP2 SWAP1 PUSH2 0x1159 JUMP JUMPDEST SWAP1 POP DUP1 ISZERO PUSH2 0xAAF JUMPI PUSH2 0xAAF DUP3 DUP3 PUSH2 0x820 JUMP JUMPDEST POP POP POP DUP1 DUP1 PUSH2 0xABD SWAP1 PUSH2 0x11AC JUMP JUMPDEST SWAP2 POP POP PUSH2 0x9A1 JUMP JUMPDEST POP JUMPDEST POP POP POP POP POP POP JUMP JUMPDEST DUP1 ISZERO DUP1 PUSH2 0xADA JUMPI POP DUP2 ISZERO JUMPDEST ISZERO PUSH2 0xAE4 JUMPI POP POP POP JUMP JUMPDEST PUSH1 0x0 PUSH2 0xAF0 DUP4 DUP4 PUSH2 0x1159 JUMP JUMPDEST SWAP1 POP PUSH1 0x0 DUP2 GT PUSH2 0xB42 JUMPI PUSH1 0x40 MLOAD PUSH3 0x461BCD PUSH1 0xE5 SHL DUP2 MSTORE PUSH1 0x20 PUSH1 0x4 DUP3 ADD MSTORE PUSH1 0x1E PUSH1 0x24 DUP3 ADD MSTORE PUSH32 0x53706C69747465723A2076616C696461746F72207368617265207A65726F0000 PUSH1 0x44 DUP3 ADD MSTORE PUSH1 0x64 ADD PUSH2 0x47C JUMP JUMPDEST PUSH1 0x0 JUMPDEST DUP4 DUP2 LT ISZERO PUSH2 0xB8F JUMPI PUSH2 0xB7D DUP6 DUP6 DUP4 DUP2 DUP2 LT PUSH2 0xB62 JUMPI PUSH2 0xB62 PUSH2 0x1196 JUMP JUMPDEST SWAP1 POP PUSH1 0x20 MUL ADD PUSH1 0x20 DUP2 ADD SWAP1 PUSH2 0xB77 SWAP2 SWAP1 PUSH2 0xCF9 JUMP JUMPDEST DUP4 PUSH2 0x820 JUMP JUMPDEST DUP1 PUSH2 0xB87 DUP2 PUSH2 0x11AC JUMP JUMPDEST SWAP2 POP POP PUSH2 0xB45 JUMP JUMPDEST POP POP POP POP POP JUMP JUMPDEST PUSH1 0x1 PUSH1 0x1 PUSH1 0xA0 SHL SUB DUP2 AND DUP2 EQ PUSH2 0xBAB JUMPI PUSH1 0x0 DUP1 REVERT JUMPDEST POP JUMP JUMPDEST PUSH1 0x0 DUP1 PUSH1 0x40 DUP4 DUP6 SUB SLT ISZERO PUSH2 0xBC1 JUMPI PUSH1 0x0 DUP1 REVERT JUMPDEST DUP3 CALLDATALOAD SWAP2 POP PUSH1 0x20 DUP4 ADD CALLDATALOAD PUSH2 0xBD3 DUP2 PUSH2 0xB96 JUMP JUMPDEST DUP1 SWAP2 POP POP SWAP3 POP SWAP3 SWAP1 POP JUMP JUMPDEST PUSH1 0x0 PUSH1 0x20 DUP3 DUP5 SUB SLT ISZERO PUSH2 0xBF0 JUMPI PUSH1 0x0 DUP1 REVERT JUMPDEST POP CALLDATALOAD SWAP2 SWAP1 POP JUMP JUMPDEST PUSH1 0x0 DUP1 DUP4 PUSH1 0x1F DUP5 ADD SLT PUSH2 0xC09 JUMPI PUSH1 0x0 DUP1 REVERT JUMPDEST POP DUP2 CALLDATALOAD PUSH8 0xFFFFFFFFFFFFFFFF DUP2 GT ISZERO PUSH2 0xC21 JUMPI PUSH1 0x0 DUP1 REVERT JUMPDEST PUSH1 0x20 DUP4 ADD SWAP2 POP DUP4 PUSH1 0x20 DUP3 PUSH1 0x5 SHL DUP6 ADD ADD GT ISZERO PUSH2 0xC3C JUMPI PUSH1 0x0 DUP1 REVERT JUMPDEST SWAP3 POP SWAP3 SWAP1 POP JUMP JUMPDEST PUSH1 0x0 DUP1 PUSH1 0x0 DUP1 PUSH1 0x0 DUP1 PUSH1 0x0 DUP1 PUSH1 0xA0 DUP10 DUP12 SUB SLT ISZERO PUSH2 0xC5F JUMPI PUSH1 0x0 DUP1 REVERT JUMPDEST DUP9 CALLDATALOAD SWAP8 POP PUSH1 0x20 DUP10 ADD CALLDATALOAD PUSH2 0xC71 DUP2 PUSH2 0xB96 JUMP JUMPDEST SWAP7 POP PUSH1 0x40 DUP10 ADD CALLDATALOAD PUSH8 0xFFFFFFFFFFFFFFFF DUP1 DUP3 GT ISZERO PUSH2 0xC8E JUMPI PUSH1 0x0 DUP1 REVERT JUMPDEST PUSH2 0xC9A DUP13 DUP4 DUP14 ADD PUSH2 0xBF7 JUMP JUMPDEST SWAP1 SWAP9 POP SWAP7 POP PUSH1 0x60 DUP12 ADD CALLDATALOAD SWAP2 POP DUP1 DUP3 GT ISZERO PUSH2 0xCB3 JUMPI PUSH1 0x0 DUP1 REVERT JUMPDEST PUSH2 0xCBF DUP13 DUP4 DUP14 ADD PUSH2 0xBF7 JUMP JUMPDEST SWAP1 SWAP7 POP SWAP5 POP PUSH1 0x80 DUP12 ADD CALLDATALOAD SWAP2 POP DUP1 DUP3 GT ISZERO PUSH2 0xCD8 JUMPI PUSH1 0x0 DUP1 REVERT JUMPDEST POP PUSH2 0xCE5 DUP12 DUP3 DUP13 ADD PUSH2 0xBF7 JUMP JUMPDEST SWAP10 SWAP13 SWAP9 SWAP12 POP SWAP7 SWAP10 POP SWAP5 SWAP8 SWAP4 SWAP7 SWAP3 SWAP6 SWAP5 POP POP POP JUMP JUMPDEST PUSH1 0x0 PUSH1 0x20 DUP3 DUP5 SUB SLT ISZERO PUSH2 0xD0B JUMPI PUSH1 0x0 DUP1 REVERT JUMPDEST DUP2 CALLDATALOAD PUSH2 0xD16 DUP2 PUSH2 0xB96 JUMP JUMPDEST SWAP4 SWAP3 POP POP POP JUMP JUMPDEST PUSH4 0x4E487B71 PUSH1 0xE0 SHL PUSH1 0x0 MSTORE PUSH1 0x41 PUSH1 0x4 MSTORE PUSH1 0x24 PUSH1 0x0 REVERT JUMPDEST PUSH1 0x40 MLOAD PUSH1 0xE0 DUP2 ADD PUSH8 0xFFFFFFFFFFFFFFFF DUP2 GT DUP3 DUP3 LT OR ISZERO PUSH2 0xD56 JUMPI PUSH2 0xD56 PUSH2 0xD1D JUMP JUMPDEST PUSH1 0x40 MSTORE SWAP1 JUMP JUMPDEST PUSH1 0x40 MLOAD PUSH1 0xA0 DUP2 ADD PUSH8 0xFFFFFFFFFFFFFFFF DUP2 GT DUP3 DUP3 LT OR ISZERO PUSH2 0xD56 JUMPI PUSH2 0xD56 PUSH2 0xD1D JUMP JUMPDEST PUSH1 0x40 DUP1 MLOAD SWAP1 DUP2 ADD PUSH8 0xFFFFFFFFFFFFFFFF DUP2 GT DUP3 DUP3 LT OR ISZERO PUSH2 0xD56 JUMPI PUSH2 0xD56 PUSH2 0xD1D JUMP JUMPDEST PUSH1 0x40 MLOAD PUSH1 0x1F DUP3 ADD PUSH1 0x1F NOT AND DUP2 ADD PUSH8 0xFFFFFFFFFFFFFFFF DUP2 GT DUP3 DUP3 LT OR ISZERO PUSH2 0xDCB JUMPI PUSH2 0xDCB PUSH2 0xD1D JUMP JUMPDEST PUSH1 0x40 MSTORE SWAP2 SWAP1 POP JUMP JUMPDEST DUP1 MLOAD PUSH8 0xFFFFFFFFFFFFFFFF DUP2 AND DUP2 EQ PUSH2 0xDEB JUMPI PUSH1 0x0 DUP1 REVERT JUMPDEST SWAP2 SWAP1 POP JUMP JUMPDEST DUP1 MLOAD PUSH2 0xFFFF DUP2 AND DUP2 EQ PUSH2 0xDEB JUMPI PUSH1 0x0 DUP1 REVERT JUMPDEST PUSH1 0x0 PUSH1 0xE0 DUP3 DUP5 SUB SLT ISZERO PUSH2 0xE14 JUMPI PUSH1 0x0 DUP1 REVERT JUMPDEST PUSH2 0xE1C PUSH2 0xD33 JUMP JUMPDEST DUP3 MLOAD DUP2 MSTORE PUSH1 0x20 DUP4 ADD MLOAD PUSH2 0xE2E DUP2 PUSH2 0xB96 JUMP JUMPDEST PUSH1 0x20 DUP3 ADD MSTORE PUSH1 0x40 DUP4 ADD MLOAD PUSH2 0xE41 DUP2 PUSH2 0xB96 JUMP JUMPDEST PUSH1 0x40 DUP3 ADD MSTORE PUSH1 0x60 DUP4 ADD MLOAD PUSH12 0xFFFFFFFFFFFFFFFFFFFFFFFF DUP2 AND DUP2 EQ PUSH2 0xE65 JUMPI PUSH1 0x0 DUP1 REVERT JUMPDEST PUSH1 0x60 DUP3 ADD MSTORE PUSH2 0xE76 PUSH1 0x80 DUP5 ADD PUSH2 0xDD3 JUMP JUMPDEST PUSH1 0x80 DUP3 ADD MSTORE PUSH2 0xE87 PUSH1 0xA0 DUP5 ADD PUSH2 0xDF0 JUMP JUMPDEST PUSH1 0xA0 DUP3 ADD MSTORE PUSH1 0xC0 DUP4 ADD MLOAD PUSH1 0xC0 DUP3 ADD MSTORE DUP1 SWAP2 POP POP SWAP3 SWAP2 POP POP JUMP JUMPDEST PUSH1 0x0 PUSH1 0xA0 DUP3 DUP5 SUB SLT ISZERO PUSH2 0xEB2 JUMPI PUSH1 0x0 DUP1 REVERT JUMPDEST PUSH2 0xEBA PUSH2 0xD5C JUMP JUMPDEST SWAP1 POP PUSH2 0xEC5 DUP3 PUSH2 0xDF0 JUMP JUMPDEST DUP2 MSTORE PUSH2 0xED3 PUSH1 0x20 DUP4 ADD PUSH2 0xDF0 JUMP JUMPDEST PUSH1 0x20 DUP3 ADD MSTORE PUSH2 0xEE4 PUSH1 0x40 DUP4 ADD PUSH2 0xDF0 JUMP JUMPDEST PUSH1 0x40 DUP3 ADD MSTORE PUSH2 0xEF5 PUSH1 0x60 DUP4 ADD PUSH2 0xDF0 JUMP JUMPDEST PUSH1 0x60 DUP3 ADD MSTORE PUSH2 0xF06 PUSH1 0x80 DUP4 ADD PUSH2 0xDF0 JUMP JUMPDEST PUSH1 0x80 DUP3 ADD MSTORE SWAP3 SWAP2 POP POP JUMP JUMPDEST DUP1 MLOAD DUP1 ISZERO ISZERO DUP2 EQ PUSH2 0xDEB JUMPI PUSH1 0x0 DUP1 REVERT JUMPDEST PUSH1 0x0 DUP3 PUSH1 0x1F DUP4 ADD SLT PUSH2 0xF32 JUMPI PUSH1 0x0 DUP1 REVERT JUMPDEST DUP2 MLOAD PUSH1 0x20 PUSH8 0xFFFFFFFFFFFFFFFF DUP3 GT ISZERO PUSH2 0xF4E JUMPI PUSH2 0xF4E PUSH2 0xD1D JUMP JUMPDEST PUSH2 0xF5C DUP2 DUP4 PUSH1 0x5 SHL ADD PUSH2 0xDA2 JUMP JUMPDEST DUP3 DUP2 MSTORE PUSH1 0x6 SWAP3 SWAP1 SWAP3 SHL DUP5 ADD DUP2 ADD SWAP2 DUP2 DUP2 ADD SWAP1 DUP7 DUP5 GT ISZERO PUSH2 0xF7B JUMPI PUSH1 0x0 DUP1 REVERT JUMPDEST DUP3 DUP7 ADD JUMPDEST DUP5 DUP2 LT ISZERO PUSH2 0xFC1 JUMPI PUSH1 0x40 DUP2 DUP10 SUB SLT ISZERO PUSH2 0xF98 JUMPI PUSH1 0x0 DUP1 DUP2 REVERT JUMPDEST PUSH2 0xFA0 PUSH2 0xD7F JUMP JUMPDEST DUP2 MLOAD DUP2 MSTORE PUSH2 0xFAF DUP6 DUP4 ADD PUSH2 0xDF0 JUMP JUMPDEST DUP2 DUP7 ADD MSTORE DUP4 MSTORE SWAP2 DUP4 ADD SWAP2 PUSH1 0x40 ADD PUSH2 0xF7F JUMP JUMPDEST POP SWAP7 SWAP6 POP POP POP POP POP POP JUMP JUMPDEST PUSH1 0x0 DUP1 PUSH1 0x40 DUP4 DUP6 SUB SLT ISZERO PUSH2 0xFDF JUMPI PUSH1 0x0 DUP1 REVERT JUMPDEST DUP3 MLOAD PUSH8 0xFFFFFFFFFFFFFFFF DUP1 DUP3 GT ISZERO PUSH2 0xFF7 JUMPI PUSH1 0x0 DUP1 REVERT JUMPDEST SWAP1 DUP5 ADD SWAP1 PUSH2 0x120 DUP3 DUP8 SUB SLT ISZERO PUSH2 0x100C JUMPI PUSH1 0x0 DUP1 REVERT JUMPDEST PUSH2 0x1014 PUSH2 0xD5C JUMP JUMPDEST DUP3 MLOAD PUSH2 0x101F DUP2 PUSH2 0xB96 JUMP JUMPDEST DUP2 MSTORE PUSH1 0x20 DUP4 DUP2 ADD MLOAD DUP4 DUP2 GT ISZERO PUSH2 0x1034 JUMPI PUSH1 0x0 DUP1 REVERT JUMPDEST DUP5 ADD PUSH1 0x1F DUP2 ADD DUP10 SGT PUSH2 0x1045 JUMPI PUSH1 0x0 DUP1 REVERT JUMPDEST DUP1 MLOAD DUP5 DUP2 GT ISZERO PUSH2 0x1057 JUMPI PUSH2 0x1057 PUSH2 0xD1D JUMP JUMPDEST PUSH2 0x1069 PUSH1 0x1F DUP3 ADD PUSH1 0x1F NOT AND DUP5 ADD PUSH2 0xDA2 JUMP JUMPDEST DUP2 DUP2 MSTORE DUP11 DUP5 DUP4 DUP6 ADD ADD GT ISZERO PUSH2 0x107D JUMPI PUSH1 0x0 DUP1 REVERT JUMPDEST PUSH1 0x0 JUMPDEST DUP3 DUP2 LT ISZERO PUSH2 0x109B JUMPI DUP4 DUP2 ADD DUP6 ADD MLOAD DUP3 DUP3 ADD DUP7 ADD MSTORE DUP5 ADD PUSH2 0x1080 JUMP JUMPDEST POP PUSH1 0x0 DUP5 DUP4 DUP4 ADD ADD MSTORE DUP1 DUP5 DUP7 ADD MSTORE POP POP POP PUSH2 0x10B9 DUP9 PUSH1 0x40 DUP7 ADD PUSH2 0xEA0 JUMP JUMPDEST PUSH1 0x40 DUP4 ADD MSTORE PUSH2 0x10CA PUSH1 0xE0 DUP6 ADD PUSH2 0xF11 JUMP JUMPDEST PUSH1 0x60 DUP4 ADD MSTORE PUSH2 0x10DC PUSH2 0x100 DUP6 ADD PUSH2 0xDD3 JUMP JUMPDEST PUSH1 0x80 DUP4 ADD MSTORE DUP7 ADD MLOAD SWAP1 SWAP5 POP SWAP2 POP DUP1 DUP3 GT ISZERO PUSH2 0x10F6 JUMPI PUSH1 0x0 DUP1 REVERT JUMPDEST POP PUSH2 0x1103 DUP6 DUP3 DUP7 ADD PUSH2 0xF21 JUMP JUMPDEST SWAP2 POP POP SWAP3 POP SWAP3 SWAP1 POP JUMP JUMPDEST PUSH1 0x0 PUSH1 0x20 DUP3 DUP5 SUB SLT ISZERO PUSH2 0x111F JUMPI PUSH1 0x0 DUP1 REVERT JUMPDEST POP MLOAD SWAP2 SWAP1 POP JUMP JUMPDEST PUSH4 0x4E487B71 PUSH1 0xE0 SHL PUSH1 0x0 MSTORE PUSH1 0x11 PUSH1 0x4 MSTORE PUSH1 0x24 PUSH1 0x0 REVERT JUMPDEST DUP1 DUP3 MUL DUP2 ISZERO DUP3 DUP3 DIV DUP5 EQ OR PUSH2 0x1153 JUMPI PUSH2 0x1153 PUSH2 0x1126 JUMP JUMPDEST SWAP3 SWAP2 POP POP JUMP JUMPDEST PUSH1 0x0 DUP3 PUSH2 0x1176 JUMPI PUSH4 0x4E487B71 PUSH1 0xE0 SHL PUSH1 0x0 MSTORE PUSH1 0x12 PUSH1 0x4 MSTORE PUSH1 0x24 PUSH1 0x0 REVERT JUMPDEST POP DIV SWAP1 JUMP JUMPDEST PUSH1 0x0 PUSH1 0x20 DUP3 DUP5 SUB SLT ISZERO PUSH2 0x118D JUMPI PUSH1 0x0 DUP1 REVERT JUMPDEST PUSH2 0xD16 DUP3 PUSH2 0xF11 JUMP JUMPDEST PUSH4 0x4E487B71 PUSH1 0xE0 SHL PUSH1 0x0 MSTORE PUSH1 0x32 PUSH1 0x4 MSTORE PUSH1 0x24 PUSH1 0x0 REVERT JUMPDEST PUSH1 0x0 PUSH1 0x1 DUP3 ADD PUSH2 0x11BE JUMPI PUSH2 0x11BE PUSH2 0x1126 JUMP JUMPDEST POP PUSH1 0x1 ADD SWAP1 JUMP INVALID LOG2 PUSH5 0x6970667358 0x22 SLT KECCAK256 EXTCODEHASH SWAP11 0xF9 0xC 0x1F PUSH5 0xEA3115840B 0xEF 0xF6 CHAINID 0xF6 CALLER DUP9 0xCC 0xB8 CODECOPY SWAP4 0x2E PC 0x2B 0xC8 0xD2 0xC9 SELFBALANCE PUSH26 0x14671564736F6C63430008140033000000000000000000000000 "},"methodIdentifiers":{"BPS()":"249d39e9","assetRecipient(bytes32)":"47790199","executionLog()":"9e6b20f1","governance()":"5aa6e675","hai()":"994f2ab4","jobSettled(bytes32)":"917de516","registry()":"7b103999","setAssetRecipient(bytes32,address)":"0df72f1c","setGovernance(address)":"ab033ea9","setTreasury(address)":"f0f44260","settlePayout(bytes32,address,address[],bytes32[],address[])":"5bd4cb57","treasury()":"61d027b3"}}}}}