{"contracts/WorkflowRegistry.sol":{"WorkflowRegistry":{"abi":[{"inputs":[{"internalType":"address","name":"initialGovernance","type":"address"}],"stateMutability":"nonpayable","type":"constructor"},{"inputs":[],"name":"InvalidSplit","type":"error"},{"inputs":[],"name":"Unauthorized","type":"error"},{"inputs":[],"name":"UnknownWorkflow","type":"error"},{"inputs":[],"name":"WorkflowExists","type":"error"},{"anonymous":false,"inputs":[{"indexed":true,"internalType":"address","name":"attestor","type":"address"},{"indexed":false,"internalType":"bool","name":"approved","type":"bool"}],"name":"AttestorUpdated","type":"event"},{"anonymous":false,"inputs":[{"indexed":true,"internalType":"address","name":"newGovernance","type":"address"}],"name":"GovernanceUpdated","type":"event"},{"anonymous":false,"inputs":[{"indexed":true,"internalType":"bytes32","name":"workflowId","type":"bytes32"},{"indexed":false,"internalType":"bool","name":"flagged","type":"bool"},{"indexed":true,"internalType":"address","name":"attestor","type":"address"}],"name":"WorkflowFlagged","type":"event"},{"anonymous":false,"inputs":[{"indexed":true,"internalType":"bytes32","name":"workflowId","type":"bytes32"},{"indexed":true,"internalType":"address","name":"creator","type":"address"},{"indexed":false,"internalType":"string","name":"metadataURI","type":"string"}],"name":"WorkflowRegistered","type":"event"},{"anonymous":false,"inputs":[{"indexed":true,"internalType":"bytes32","name":"workflowId","type":"bytes32"}],"name":"WorkflowUpdated","type":"event"},{"inputs":[],"name":"BPS","outputs":[{"internalType":"uint16","name":"","type":"uint16"}],"stateMutability":"view","type":"function"},{"inputs":[{"internalType":"address","name":"","type":"address"}],"name":"attestors","outputs":[{"internalType":"bool","name":"","type":"bool"}],"stateMutability":"view","type":"function"},{"inputs":[{"internalType":"bytes32","name":"workflowId","type":"bytes32"},{"internalType":"bool","name":"flagged","type":"bool"}],"name":"flagWorkflow","outputs":[],"stateMutability":"nonpayable","type":"function"},{"inputs":[{"internalType":"bytes32","name":"workflowId","type":"bytes32"}],"name":"getWorkflow","outputs":[{"components":[{"internalType":"address","name":"creator","type":"address"},{"internalType":"string","name":"metadataURI","type":"string"},{"components":[{"internalType":"uint16","name":"creatorBps","type":"uint16"},{"internalType":"uint16","name":"upstreamBps","type":"uint16"},{"internalType":"uint16","name":"nodeBps","type":"uint16"},{"internalType":"uint16","name":"validatorBps","type":"uint16"},{"internalType":"uint16","name":"treasuryBps","type":"uint16"}],"internalType":"struct WorkflowRegistry.RoyaltyRoute","name":"route","type":"tuple"},{"internalType":"bool","name":"flagged","type":"bool"},{"internalType":"uint64","name":"createdAt","type":"uint64"}],"internalType":"struct WorkflowRegistry.Workflow","name":"wf","type":"tuple"},{"components":[{"internalType":"bytes32","name":"assetId","type":"bytes32"},{"internalType":"uint16","name":"weightBps","type":"uint16"}],"internalType":"struct WorkflowRegistry.Dependency[]","name":"deps","type":"tuple[]"}],"stateMutability":"view","type":"function"},{"inputs":[],"name":"governance","outputs":[{"internalType":"address","name":"","type":"address"}],"stateMutability":"view","type":"function"},{"inputs":[{"internalType":"bytes32","name":"workflowId","type":"bytes32"},{"internalType":"string","name":"metadataURI","type":"string"},{"components":[{"internalType":"uint16","name":"creatorBps","type":"uint16"},{"internalType":"uint16","name":"upstreamBps","type":"uint16"},{"internalType":"uint16","name":"nodeBps","type":"uint16"},{"internalType":"uint16","name":"validatorBps","type":"uint16"},{"internalType":"uint16","name":"treasuryBps","type":"uint16"}],"internalType":"struct WorkflowRegistry.RoyaltyRoute","name":"route","type":"tuple"},{"components":[{"internalType":"bytes32","name":"assetId","type":"bytes32"},{"internalType":"uint16","name":"weightBps","type":"uint16"}],"internalType":"struct WorkflowRegistry.DependencyInput[]","name":"dependencyInputs","type":"tuple[]"}],"name":"registerWorkflow","outputs":[],"stateMutability":"nonpayable","type":"function"},{"inputs":[{"internalType":"address","name":"attestor","type":"address"},{"internalType":"bool","name":"approved","type":"bool"}],"name":"setAttestor","outputs":[],"stateMutability":"nonpayable","type":"function"},{"inputs":[{"internalType":"address","name":"newGovernance","type":"address"}],"name":"setGovernance","outputs":[],"stateMutability":"nonpayable","type":"function"},{"inputs":[{"internalType":"bytes32","name":"workflowId","type":"bytes32"},{"components":[{"internalType":"bytes32","name":"assetId","type":"bytes32"},{"internalType":"uint16","name":"weightBps","type":"uint16"}],"internalType":"struct WorkflowRegistry.DependencyInput[]","name":"dependencyInputs","type":"tuple[]"}],"name":"updateDependencies","outputs":[],"stateMutability":"nonpayable","type":"function"},{"inputs":[{"internalType":"bytes32","name":"workflowId","type":"bytes32"},{"components":[{"internalType":"uint16","name":"creatorBps","type":"uint16"},{"internalType":"uint16","name":"upstreamBps","type":"uint16"},{"internalType":"uint16","name":"nodeBps","type":"uint16"},{"internalType":"uint16","name":"validatorBps","type":"uint16"},{"internalType":"uint16","name":"treasuryBps","type":"uint16"}],"internalType":"struct WorkflowRegistry.RoyaltyRoute","name":"route","type":"tuple"}],"name":"updateRoyaltyRoute","outputs":[],"stateMutability":"nonpayable","type":"function"}],"evm":{"bytecode":{"linkReferences":{},"object":"608060405234801561001057600080fd5b5060405161123038038061123083398101604081905261002f9161006c565b6001600160a01b038116156100445780610046565b335b600080546001600160a01b0319166001600160a01b03929092169190911790555061009c565b60006020828403121561007e57600080fd5b81516001600160a01b038116811461009557600080fd5b9392505050565b611185806100ab6000396000f3fe608060405234801561001057600080fd5b506004361061009e5760003560e01c80635aa6e675116100665780635aa6e67514610132578063ab033ea91461015d578063bc62a9c314610170578063e3a4ef5814610191578063e70297ca146101a457600080fd5b806311110762146100a35780631338e957146100b857806317552236146100f0578063249d39e91461010357806341724dd01461011f575b600080fd5b6100b66100b1366004610ad2565b6101b7565b005b6100db6100c6366004610b15565b60036020526000908152604090205460ff1681565b60405190151581526020015b60405180910390f35b6100b66100fe366004610b9b565b610284565b61010c61271081565b60405161ffff90911681526020016100e7565b6100b661012d366004610c53565b61038e565b600054610145906001600160a01b031681565b6040516001600160a01b0390911681526020016100e7565b6100b661016b366004610b15565b610417565b61018361017e366004610c7d565b6104af565b6040516100e7929190610ce0565b6100b661019f366004610dd9565b6106f1565b6100b66101b2366004610e25565b6107bc565b3360009081526003602052604090205460ff161580156101e257506000546001600160a01b03163314155b156101ff576040516282b42960e81b815260040160405180910390fd5b600082815260016020526040902080546001600160a01b0316610235576040516318225c6760e21b815260040160405180910390fd5b60038101805460ff1916831515908117909155604051908152339084907f61a76e700d447c48a9b407ca92db57a69d3992a81e0282641326dbee11d0b2a39060200160405180910390a3505050565b600086815260016020526040902080546001600160a01b0316156102bb57604051633af07fff60e11b815260040160405180910390fd5b6102c48461089b565b6102e15760405163bcd55b0f60e01b815260040160405180910390fd5b80546001600160a01b0319163317815560018101610300868883610ee2565b5083600282016103108282610fc6565b505060038101805468ffffffffffffffff0019166101004267ffffffffffffffff1602179055610341878484610932565b336001600160a01b0316877f356be2e4d6c92162f17c47e27b1732f0fdd5b8f25e5b576e4d03ace3b9625839888860405161037d9291906110ab565b60405180910390a350505050505050565b6000546001600160a01b031633146103b8576040516282b42960e81b815260040160405180910390fd5b6001600160a01b038216600081815260036020908152604091829020805460ff191685151590811790915591519182527f93b8543bdf0aade4f1b01f7bc7eccaa0d387724a3b85d45b5edb4c03bd8824b5910160405180910390a25050565b6000546001600160a01b03163314610441576040516282b42960e81b815260040160405180910390fd5b6001600160a01b038116610467576040516282b42960e81b815260040160405180910390fd5b600080546001600160a01b0319166001600160a01b038316908117825560405190917f9d3e522e1e47a2f6009739342b9cc7b252a1888154e843ab55ee1c81745795ab91a250565b6105046040805160a08082018352600080835260606020808501829052855193840186528284528301829052828501829052820181905260808201529091820190815260006020820181905260409091015290565b600082815260016020818152604092839020835160a0810190945280546001600160a01b03168452918201805460609493928401919061054390610e5f565b80601f016020809104026020016040519081016040528092919081815260200182805461056f90610e5f565b80156105bc5780601f10610591576101008083540402835291602001916105bc565b820191906000526020600020905b81548152906001019060200180831161059f57829003601f168201915b50505091835250506040805160a081018252600284015461ffff80821683526201000082048116602080850191909152640100000000830482168486015266010000000000008304821660608086019190915268010000000000000000909304909116608084015284019190915260039093015460ff8116151591830191909152610100900467ffffffffffffffff1691015280519092506001600160a01b031661067a576040516318225c6760e21b815260040160405180910390fd5b600083815260026020908152604080832080548251818502810185019093528083529193909284015b828210156106e657600084815260209081902060408051808201909152600285029091018054825260019081015461ffff168284015290835290920191016106a3565b505050509050915091565b600083815260016020526040902080546001600160a01b0316610727576040516318225c6760e21b815260040160405180910390fd5b80546001600160a01b0316331480159061074c57506000546001600160a01b03163314155b15610769576040516282b42960e81b815260040160405180910390fd5b600084815260026020526040812061078091610a73565b61078b848484610932565b60405184907f7743cf5e4b312871b672f40b44c826422cafb560c4708b2c6a64925a7f98055a90600090a250505050565b6107c58161089b565b6107e25760405163bcd55b0f60e01b815260040160405180910390fd5b600082815260016020526040902080546001600160a01b0316610818576040516318225c6760e21b815260040160405180910390fd5b80546001600160a01b0316331480159061083d57506000546001600160a01b03163314155b1561085a576040516282b42960e81b815260040160405180910390fd5b81600282016108698282610fc6565b505060405183907f7743cf5e4b312871b672f40b44c826422cafb560c4708b2c6a64925a7f98055a90600090a2505050565b6000806108ae60a08401608085016110da565b61ffff166108c260808501606086016110da565b61ffff166108d660608601604087016110da565b61ffff166108ea60408701602088016110da565b61ffff166108fb60208801886110da565b61ffff16610909919061110d565b610913919061110d565b61091d919061110d565b610927919061110d565b612710149392505050565b6000805b82811015610a1f573684848381811061095157610951611120565b604002919091019150508035610979576040516282b42960e81b815260040160405180910390fd5b61098960408201602083016110da565b6109979061ffff168461110d565b60008781526002602090815260409182902082518084018452853581529396509291828201916109cb9186019086016110da565b61ffff9081169091528254600181810185556000948552602094859020845160029093020191825593909201519190920180549190921661ffff199091161790555080610a1781611136565b915050610936565b50612710811115610a6d5760405162461bcd60e51b8152602060048201526014602482015273149959da5cdd1c9e4e881bdd995c9dd95a59da1d60621b604482015260640160405180910390fd5b50505050565b5080546000825560020290600052602060002090810190610a949190610a97565b50565b5b80821115610ab9576000815560018101805461ffff19169055600201610a98565b5090565b80358015158114610acd57600080fd5b919050565b60008060408385031215610ae557600080fd5b82359150610af560208401610abd565b90509250929050565b80356001600160a01b0381168114610acd57600080fd5b600060208284031215610b2757600080fd5b610b3082610afe565b9392505050565b600060a08284031215610b4957600080fd5b50919050565b60008083601f840112610b6157600080fd5b50813567ffffffffffffffff811115610b7957600080fd5b6020830191508360208260061b8501011115610b9457600080fd5b9250929050565b6000806000806000806101008789031215610bb557600080fd5b86359550602087013567ffffffffffffffff80821115610bd457600080fd5b818901915089601f830112610be857600080fd5b813581811115610bf757600080fd5b8a6020828501011115610c0957600080fd5b6020830197509550610c1e8a60408b01610b37565b945060e0890135915080821115610c3457600080fd5b50610c4189828a01610b4f565b979a9699509497509295939492505050565b60008060408385031215610c6657600080fd5b610c6f83610afe565b9150610af560208401610abd565b600060208284031215610c8f57600080fd5b5035919050565b600081518084526020808501945080840160005b83811015610cd55781518051885283015161ffff168388015260409096019590820190600101610caa565b509495945050505050565b6040815260018060a01b038351166040820152600060208085015161012080606086015281518061016087015260005b81811015610d2d5783810185015187820161018001528401610d10565b5061018092506000838288010152601f19601f820116860190506040880151610d92608088018261ffff808251168352806020830151166020840152806040830151166040840152806060830151166060840152806080830151166080840152505050565b5060608801518015158784015250608088015167ffffffffffffffff81166101408801529150828682030184870152610dcd83820188610c96565b98975050505050505050565b600080600060408486031215610dee57600080fd5b83359250602084013567ffffffffffffffff811115610e0c57600080fd5b610e1886828701610b4f565b9497909650939450505050565b60008060c08385031215610e3857600080fd5b82359150610af58460208501610b37565b634e487b7160e01b600052604160045260246000fd5b600181811c90821680610e7357607f821691505b602082108103610b4957634e487b7160e01b600052602260045260246000fd5b601f821115610edd57600081815260208120601f850160051c81016020861015610eba5750805b601f850160051c820191505b81811015610ed957828155600101610ec6565b5050505b505050565b67ffffffffffffffff831115610efa57610efa610e49565b610f0e83610f088354610e5f565b83610e93565b6000601f841160018114610f425760008515610f2a5750838201355b600019600387901b1c1916600186901b178355610f9c565b600083815260209020601f19861690835b82811015610f735786850135825560209485019460019092019101610f53565b5086821015610f905760001960f88860031b161c19848701351681555b505060018560011b0183555b5050505050565b61ffff81168114610a9457600080fd5b60008135610fc081610fa3565b92915050565b8135610fd181610fa3565b61ffff8116905081548161ffff1982161783556020840135610ff281610fa3565b63ffff00008160101b169050808363ffffffff19841617178455604085013561101a81610fa3565b65ffff000000008160201b1690508365ffffffffffff198416179350808483171785556060860135925061104d83610fa3565b67ffff0000000000008360301b1667ffff00000000000019851683178217178555505050506110a761108160808401610fb3565b825469ffff0000000000000000191660409190911b69ffff000000000000000016178255565b5050565b60208152816020820152818360408301376000818301604090810191909152601f909201601f19160101919050565b6000602082840312156110ec57600080fd5b8135610b3081610fa3565b634e487b7160e01b600052601160045260246000fd5b80820180821115610fc057610fc06110f7565b634e487b7160e01b600052603260045260246000fd5b600060018201611148576111486110f7565b506001019056fea2646970667358221220a2f8f6129925d047a65d6f6d8f01a9db19aaf22e90db2ff24518d11a964efa8764736f6c63430008140033","opcodes":"PUSH1 0x80 PUSH1 0x40 MSTORE CALLVALUE DUP1 ISZERO PUSH2 0x10 JUMPI PUSH1 0x0 DUP1 REVERT JUMPDEST POP PUSH1 0x40 MLOAD PUSH2 0x1230 CODESIZE SUB DUP1 PUSH2 0x1230 DUP4 CODECOPY DUP2 ADD PUSH1 0x40 DUP2 SWAP1 MSTORE PUSH2 0x2F SWAP2 PUSH2 0x6C JUMP JUMPDEST PUSH1 0x1 PUSH1 0x1 PUSH1 0xA0 SHL SUB DUP2 AND ISZERO PUSH2 0x44 JUMPI DUP1 PUSH2 0x46 JUMP JUMPDEST CALLER JUMPDEST PUSH1 0x0 DUP1 SLOAD PUSH1 0x1 PUSH1 0x1 PUSH1 0xA0 SHL SUB NOT AND PUSH1 0x1 PUSH1 0x1 PUSH1 0xA0 SHL SUB SWAP3 SWAP1 SWAP3 AND SWAP2 SWAP1 SWAP2 OR SWAP1 SSTORE POP PUSH2 0x9C JUMP JUMPDEST PUSH1 0x0 PUSH1 0x20 DUP3 DUP5 SUB SLT ISZERO PUSH2 0x7E JUMPI PUSH1 0x0 DUP1 REVERT JUMPDEST DUP2 MLOAD PUSH1 0x1 PUSH1 0x1 PUSH1 0xA0 SHL SUB DUP2 AND DUP2 EQ PUSH2 0x95 JUMPI PUSH1 0x0 DUP1 REVERT JUMPDEST SWAP4 SWAP3 POP POP POP JUMP JUMPDEST PUSH2 0x1185 DUP1 PUSH2 0xAB PUSH1 0x0 CODECOPY PUSH1 0x0 RETURN INVALID PUSH1 0x80 PUSH1 0x40 MSTORE CALLVALUE DUP1 ISZERO PUSH2 0x10 JUMPI PUSH1 0x0 DUP1 REVERT JUMPDEST POP PUSH1 0x4 CALLDATASIZE LT PUSH2 0x9E JUMPI PUSH1 0x0 CALLDATALOAD PUSH1 0xE0 SHR DUP1 PUSH4 0x5AA6E675 GT PUSH2 0x66 JUMPI DUP1 PUSH4 0x5AA6E675 EQ PUSH2 0x132 JUMPI DUP1 PUSH4 0xAB033EA9 EQ PUSH2 0x15D JUMPI DUP1 PUSH4 0xBC62A9C3 EQ PUSH2 0x170 JUMPI DUP1 PUSH4 0xE3A4EF58 EQ PUSH2 0x191 JUMPI DUP1 PUSH4 0xE70297CA EQ PUSH2 0x1A4 JUMPI PUSH1 0x0 DUP1 REVERT JUMPDEST DUP1 PUSH4 0x11110762 EQ PUSH2 0xA3 JUMPI DUP1 PUSH4 0x1338E957 EQ PUSH2 0xB8 JUMPI DUP1 PUSH4 0x17552236 EQ PUSH2 0xF0 JUMPI DUP1 PUSH4 0x249D39E9 EQ PUSH2 0x103 JUMPI DUP1 PUSH4 0x41724DD0 EQ PUSH2 0x11F JUMPI JUMPDEST PUSH1 0x0 DUP1 REVERT JUMPDEST PUSH2 0xB6 PUSH2 0xB1 CALLDATASIZE PUSH1 0x4 PUSH2 0xAD2 JUMP JUMPDEST PUSH2 0x1B7 JUMP JUMPDEST STOP JUMPDEST PUSH2 0xDB PUSH2 0xC6 CALLDATASIZE PUSH1 0x4 PUSH2 0xB15 JUMP JUMPDEST PUSH1 0x3 PUSH1 0x20 MSTORE PUSH1 0x0 SWAP1 DUP2 MSTORE PUSH1 0x40 SWAP1 KECCAK256 SLOAD PUSH1 0xFF AND DUP2 JUMP JUMPDEST PUSH1 0x40 MLOAD SWAP1 ISZERO ISZERO DUP2 MSTORE PUSH1 0x20 ADD JUMPDEST PUSH1 0x40 MLOAD DUP1 SWAP2 SUB SWAP1 RETURN JUMPDEST PUSH2 0xB6 PUSH2 0xFE CALLDATASIZE PUSH1 0x4 PUSH2 0xB9B JUMP JUMPDEST PUSH2 0x284 JUMP JUMPDEST PUSH2 0x10C PUSH2 0x2710 DUP2 JUMP JUMPDEST PUSH1 0x40 MLOAD PUSH2 0xFFFF SWAP1 SWAP2 AND DUP2 MSTORE PUSH1 0x20 ADD PUSH2 0xE7 JUMP JUMPDEST PUSH2 0xB6 PUSH2 0x12D CALLDATASIZE PUSH1 0x4 PUSH2 0xC53 JUMP JUMPDEST PUSH2 0x38E JUMP JUMPDEST PUSH1 0x0 SLOAD PUSH2 0x145 SWAP1 PUSH1 0x1 PUSH1 0x1 PUSH1 0xA0 SHL SUB AND DUP2 JUMP JUMPDEST PUSH1 0x40 MLOAD PUSH1 0x1 PUSH1 0x1 PUSH1 0xA0 SHL SUB SWAP1 SWAP2 AND DUP2 MSTORE PUSH1 0x20 ADD PUSH2 0xE7 JUMP JUMPDEST PUSH2 0xB6 PUSH2 0x16B CALLDATASIZE PUSH1 0x4 PUSH2 0xB15 JUMP JUMPDEST PUSH2 0x417 JUMP JUMPDEST PUSH2 0x183 PUSH2 0x17E CALLDATASIZE PUSH1 0x4 PUSH2 0xC7D JUMP JUMPDEST PUSH2 0x4AF JUMP JUMPDEST PUSH1 0x40 MLOAD PUSH2 0xE7 SWAP3 SWAP2 SWAP1 PUSH2 0xCE0 JUMP JUMPDEST PUSH2 0xB6 PUSH2 0x19F CALLDATASIZE PUSH1 0x4 PUSH2 0xDD9 JUMP JUMPDEST PUSH2 0x6F1 JUMP JUMPDEST PUSH2 0xB6 PUSH2 0x1B2 CALLDATASIZE PUSH1 0x4 PUSH2 0xE25 JUMP JUMPDEST PUSH2 0x7BC JUMP JUMPDEST CALLER PUSH1 0x0 SWAP1 DUP2 MSTORE PUSH1 0x3 PUSH1 0x20 MSTORE PUSH1 0x40 SWAP1 KECCAK256 SLOAD PUSH1 0xFF AND ISZERO DUP1 ISZERO PUSH2 0x1E2 JUMPI POP PUSH1 0x0 SLOAD PUSH1 0x1 PUSH1 0x1 PUSH1 0xA0 SHL SUB AND CALLER EQ ISZERO JUMPDEST ISZERO PUSH2 0x1FF JUMPI PUSH1 0x40 MLOAD PUSH3 0x82B429 PUSH1 0xE8 SHL DUP2 MSTORE PUSH1 0x4 ADD PUSH1 0x40 MLOAD DUP1 SWAP2 SUB SWAP1 REVERT JUMPDEST PUSH1 0x0 DUP3 DUP2 MSTORE PUSH1 0x1 PUSH1 0x20 MSTORE PUSH1 0x40 SWAP1 KECCAK256 DUP1 SLOAD PUSH1 0x1 PUSH1 0x1 PUSH1 0xA0 SHL SUB AND PUSH2 0x235 JUMPI PUSH1 0x40 MLOAD PUSH4 0x18225C67 PUSH1 0xE2 SHL DUP2 MSTORE PUSH1 0x4 ADD PUSH1 0x40 MLOAD DUP1 SWAP2 SUB SWAP1 REVERT JUMPDEST PUSH1 0x3 DUP2 ADD DUP1 SLOAD PUSH1 0xFF NOT AND DUP4 ISZERO ISZERO SWAP1 DUP2 OR SWAP1 SWAP2 SSTORE PUSH1 0x40 MLOAD SWAP1 DUP2 MSTORE CALLER SWAP1 DUP5 SWAP1 PUSH32 0x61A76E700D447C48A9B407CA92DB57A69D3992A81E0282641326DBEE11D0B2A3 SWAP1 PUSH1 0x20 ADD PUSH1 0x40 MLOAD DUP1 SWAP2 SUB SWAP1 LOG3 POP POP POP JUMP JUMPDEST PUSH1 0x0 DUP7 DUP2 MSTORE PUSH1 0x1 PUSH1 0x20 MSTORE PUSH1 0x40 SWAP1 KECCAK256 DUP1 SLOAD PUSH1 0x1 PUSH1 0x1 PUSH1 0xA0 SHL SUB AND ISZERO PUSH2 0x2BB JUMPI PUSH1 0x40 MLOAD PUSH4 0x3AF07FFF PUSH1 0xE1 SHL DUP2 MSTORE PUSH1 0x4 ADD PUSH1 0x40 MLOAD DUP1 SWAP2 SUB SWAP1 REVERT JUMPDEST PUSH2 0x2C4 DUP5 PUSH2 0x89B JUMP JUMPDEST PUSH2 0x2E1 JUMPI PUSH1 0x40 MLOAD PUSH4 0xBCD55B0F PUSH1 0xE0 SHL DUP2 MSTORE PUSH1 0x4 ADD PUSH1 0x40 MLOAD DUP1 SWAP2 SUB SWAP1 REVERT JUMPDEST DUP1 SLOAD PUSH1 0x1 PUSH1 0x1 PUSH1 0xA0 SHL SUB NOT AND CALLER OR DUP2 SSTORE PUSH1 0x1 DUP2 ADD PUSH2 0x300 DUP7 DUP9 DUP4 PUSH2 0xEE2 JUMP JUMPDEST POP DUP4 PUSH1 0x2 DUP3 ADD PUSH2 0x310 DUP3 DUP3 PUSH2 0xFC6 JUMP JUMPDEST POP POP PUSH1 0x3 DUP2 ADD DUP1 SLOAD PUSH9 0xFFFFFFFFFFFFFFFF00 NOT AND PUSH2 0x100 TIMESTAMP PUSH8 0xFFFFFFFFFFFFFFFF AND MUL OR SWAP1 SSTORE PUSH2 0x341 DUP8 DUP5 DUP5 PUSH2 0x932 JUMP JUMPDEST CALLER PUSH1 0x1 PUSH1 0x1 PUSH1 0xA0 SHL SUB AND DUP8 PUSH32 0x356BE2E4D6C92162F17C47E27B1732F0FDD5B8F25E5B576E4D03ACE3B9625839 DUP9 DUP9 PUSH1 0x40 MLOAD PUSH2 0x37D SWAP3 SWAP2 SWAP1 PUSH2 0x10AB JUMP JUMPDEST PUSH1 0x40 MLOAD DUP1 SWAP2 SUB SWAP1 LOG3 POP POP POP POP POP POP POP JUMP JUMPDEST PUSH1 0x0 SLOAD PUSH1 0x1 PUSH1 0x1 PUSH1 0xA0 SHL SUB AND CALLER EQ PUSH2 0x3B8 JUMPI PUSH1 0x40 MLOAD PUSH3 0x82B429 PUSH1 0xE8 SHL DUP2 MSTORE PUSH1 0x4 ADD PUSH1 0x40 MLOAD DUP1 SWAP2 SUB SWAP1 REVERT JUMPDEST PUSH1 0x1 PUSH1 0x1 PUSH1 0xA0 SHL SUB DUP3 AND PUSH1 0x0 DUP2 DUP2 MSTORE PUSH1 0x3 PUSH1 0x20 SWAP1 DUP2 MSTORE PUSH1 0x40 SWAP2 DUP3 SWAP1 KECCAK256 DUP1 SLOAD PUSH1 0xFF NOT AND DUP6 ISZERO ISZERO SWAP1 DUP2 OR SWAP1 SWAP2 SSTORE SWAP2 MLOAD SWAP2 DUP3 MSTORE PUSH32 0x93B8543BDF0AADE4F1B01F7BC7ECCAA0D387724A3B85D45B5EDB4C03BD8824B5 SWAP2 ADD PUSH1 0x40 MLOAD DUP1 SWAP2 SUB SWAP1 LOG2 POP POP JUMP JUMPDEST PUSH1 0x0 SLOAD PUSH1 0x1 PUSH1 0x1 PUSH1 0xA0 SHL SUB AND CALLER EQ PUSH2 0x441 JUMPI PUSH1 0x40 MLOAD PUSH3 0x82B429 PUSH1 0xE8 SHL DUP2 MSTORE PUSH1 0x4 ADD PUSH1 0x40 MLOAD DUP1 SWAP2 SUB SWAP1 REVERT JUMPDEST PUSH1 0x1 PUSH1 0x1 PUSH1 0xA0 SHL SUB DUP2 AND PUSH2 0x467 JUMPI PUSH1 0x40 MLOAD PUSH3 0x82B429 PUSH1 0xE8 SHL DUP2 MSTORE PUSH1 0x4 ADD PUSH1 0x40 MLOAD DUP1 SWAP2 SUB SWAP1 REVERT JUMPDEST PUSH1 0x0 DUP1 SLOAD PUSH1 0x1 PUSH1 0x1 PUSH1 0xA0 SHL SUB NOT AND PUSH1 0x1 PUSH1 0x1 PUSH1 0xA0 SHL SUB DUP4 AND SWAP1 DUP2 OR DUP3 SSTORE PUSH1 0x40 MLOAD SWAP1 SWAP2 PUSH32 0x9D3E522E1E47A2F6009739342B9CC7B252A1888154E843AB55EE1C81745795AB SWAP2 LOG2 POP JUMP JUMPDEST PUSH2 0x504 PUSH1 0x40 DUP1 MLOAD PUSH1 0xA0 DUP1 DUP3 ADD DUP4 MSTORE PUSH1 0x0 DUP1 DUP4 MSTORE PUSH1 0x60 PUSH1 0x20 DUP1 DUP6 ADD DUP3 SWAP1 MSTORE DUP6 MLOAD SWAP4 DUP5 ADD DUP7 MSTORE DUP3 DUP5 MSTORE DUP4 ADD DUP3 SWAP1 MSTORE DUP3 DUP6 ADD DUP3 SWAP1 MSTORE DUP3 ADD DUP2 SWAP1 MSTORE PUSH1 0x80 DUP3 ADD MSTORE SWAP1 SWAP2 DUP3 ADD SWAP1 DUP2 MSTORE PUSH1 0x0 PUSH1 0x20 DUP3 ADD DUP2 SWAP1 MSTORE PUSH1 0x40 SWAP1 SWAP2 ADD MSTORE SWAP1 JUMP JUMPDEST PUSH1 0x0 DUP3 DUP2 MSTORE PUSH1 0x1 PUSH1 0x20 DUP2 DUP2 MSTORE PUSH1 0x40 SWAP3 DUP4 SWAP1 KECCAK256 DUP4 MLOAD PUSH1 0xA0 DUP2 ADD SWAP1 SWAP5 MSTORE DUP1 SLOAD PUSH1 0x1 PUSH1 0x1 PUSH1 0xA0 SHL SUB AND DUP5 MSTORE SWAP2 DUP3 ADD DUP1 SLOAD PUSH1 0x60 SWAP5 SWAP4 SWAP3 DUP5 ADD SWAP2 SWAP1 PUSH2 0x543 SWAP1 PUSH2 0xE5F JUMP JUMPDEST DUP1 PUSH1 0x1F ADD PUSH1 0x20 DUP1 SWAP2 DIV MUL PUSH1 0x20 ADD PUSH1 0x40 MLOAD SWAP1 DUP2 ADD PUSH1 0x40 MSTORE DUP1 SWAP3 SWAP2 SWAP1 DUP2 DUP2 MSTORE PUSH1 0x20 ADD DUP3 DUP1 SLOAD PUSH2 0x56F SWAP1 PUSH2 0xE5F JUMP JUMPDEST DUP1 ISZERO PUSH2 0x5BC JUMPI DUP1 PUSH1 0x1F LT PUSH2 0x591 JUMPI PUSH2 0x100 DUP1 DUP4 SLOAD DIV MUL DUP4 MSTORE SWAP2 PUSH1 0x20 ADD SWAP2 PUSH2 0x5BC JUMP JUMPDEST DUP3 ADD SWAP2 SWAP1 PUSH1 0x0 MSTORE PUSH1 0x20 PUSH1 0x0 KECCAK256 SWAP1 JUMPDEST DUP2 SLOAD DUP2 MSTORE SWAP1 PUSH1 0x1 ADD SWAP1 PUSH1 0x20 ADD DUP1 DUP4 GT PUSH2 0x59F JUMPI DUP3 SWAP1 SUB PUSH1 0x1F AND DUP3 ADD SWAP2 JUMPDEST POP POP POP SWAP2 DUP4 MSTORE POP POP PUSH1 0x40 DUP1 MLOAD PUSH1 0xA0 DUP2 ADD DUP3 MSTORE PUSH1 0x2 DUP5 ADD SLOAD PUSH2 0xFFFF DUP1 DUP3 AND DUP4 MSTORE PUSH3 0x10000 DUP3 DIV DUP2 AND PUSH1 0x20 DUP1 DUP6 ADD SWAP2 SWAP1 SWAP2 MSTORE PUSH5 0x100000000 DUP4 DIV DUP3 AND DUP5 DUP7 ADD MSTORE PUSH7 0x1000000000000 DUP4 DIV DUP3 AND PUSH1 0x60 DUP1 DUP7 ADD SWAP2 SWAP1 SWAP2 MSTORE PUSH9 0x10000000000000000 SWAP1 SWAP4 DIV SWAP1 SWAP2 AND PUSH1 0x80 DUP5 ADD MSTORE DUP5 ADD SWAP2 SWAP1 SWAP2 MSTORE PUSH1 0x3 SWAP1 SWAP4 ADD SLOAD PUSH1 0xFF DUP2 AND ISZERO ISZERO SWAP2 DUP4 ADD SWAP2 SWAP1 SWAP2 MSTORE PUSH2 0x100 SWAP1 DIV PUSH8 0xFFFFFFFFFFFFFFFF AND SWAP2 ADD MSTORE DUP1 MLOAD SWAP1 SWAP3 POP PUSH1 0x1 PUSH1 0x1 PUSH1 0xA0 SHL SUB AND PUSH2 0x67A JUMPI PUSH1 0x40 MLOAD PUSH4 0x18225C67 PUSH1 0xE2 SHL DUP2 MSTORE PUSH1 0x4 ADD PUSH1 0x40 MLOAD DUP1 SWAP2 SUB SWAP1 REVERT JUMPDEST PUSH1 0x0 DUP4 DUP2 MSTORE PUSH1 0x2 PUSH1 0x20 SWAP1 DUP2 MSTORE PUSH1 0x40 DUP1 DUP4 KECCAK256 DUP1 SLOAD DUP3 MLOAD DUP2 DUP6 MUL DUP2 ADD DUP6 ADD SWAP1 SWAP4 MSTORE DUP1 DUP4 MSTORE SWAP2 SWAP4 SWAP1 SWAP3 DUP5 ADD JUMPDEST DUP3 DUP3 LT ISZERO PUSH2 0x6E6 JUMPI PUSH1 0x0 DUP5 DUP2 MSTORE PUSH1 0x20 SWAP1 DUP2 SWAP1 KECCAK256 PUSH1 0x40 DUP1 MLOAD DUP1 DUP3 ADD SWAP1 SWAP2 MSTORE PUSH1 0x2 DUP6 MUL SWAP1 SWAP2 ADD DUP1 SLOAD DUP3 MSTORE PUSH1 0x1 SWAP1 DUP2 ADD SLOAD PUSH2 0xFFFF AND DUP3 DUP5 ADD MSTORE SWAP1 DUP4 MSTORE SWAP1 SWAP3 ADD SWAP2 ADD PUSH2 0x6A3 JUMP JUMPDEST POP POP POP POP SWAP1 POP SWAP2 POP SWAP2 JUMP JUMPDEST PUSH1 0x0 DUP4 DUP2 MSTORE PUSH1 0x1 PUSH1 0x20 MSTORE PUSH1 0x40 SWAP1 KECCAK256 DUP1 SLOAD PUSH1 0x1 PUSH1 0x1 PUSH1 0xA0 SHL SUB AND PUSH2 0x727 JUMPI PUSH1 0x40 MLOAD PUSH4 0x18225C67 PUSH1 0xE2 SHL DUP2 MSTORE PUSH1 0x4 ADD PUSH1 0x40 MLOAD DUP1 SWAP2 SUB SWAP1 REVERT JUMPDEST DUP1 SLOAD PUSH1 0x1 PUSH1 0x1 PUSH1 0xA0 SHL SUB AND CALLER EQ DUP1 ISZERO SWAP1 PUSH2 0x74C JUMPI POP PUSH1 0x0 SLOAD PUSH1 0x1 PUSH1 0x1 PUSH1 0xA0 SHL SUB AND CALLER EQ ISZERO JUMPDEST ISZERO PUSH2 0x769 JUMPI PUSH1 0x40 MLOAD PUSH3 0x82B429 PUSH1 0xE8 SHL DUP2 MSTORE PUSH1 0x4 ADD PUSH1 0x40 MLOAD DUP1 SWAP2 SUB SWAP1 REVERT JUMPDEST PUSH1 0x0 DUP5 DUP2 MSTORE PUSH1 0x2 PUSH1 0x20 MSTORE PUSH1 0x40 DUP2 KECCAK256 PUSH2 0x780 SWAP2 PUSH2 0xA73 JUMP JUMPDEST PUSH2 0x78B DUP5 DUP5 DUP5 PUSH2 0x932 JUMP JUMPDEST PUSH1 0x40 MLOAD DUP5 SWAP1 PUSH32 0x7743CF5E4B312871B672F40B44C826422CAFB560C4708B2C6A64925A7F98055A SWAP1 PUSH1 0x0 SWAP1 LOG2 POP POP POP POP JUMP JUMPDEST PUSH2 0x7C5 DUP2 PUSH2 0x89B JUMP JUMPDEST PUSH2 0x7E2 JUMPI PUSH1 0x40 MLOAD PUSH4 0xBCD55B0F PUSH1 0xE0 SHL DUP2 MSTORE PUSH1 0x4 ADD PUSH1 0x40 MLOAD DUP1 SWAP2 SUB SWAP1 REVERT JUMPDEST PUSH1 0x0 DUP3 DUP2 MSTORE PUSH1 0x1 PUSH1 0x20 MSTORE PUSH1 0x40 SWAP1 KECCAK256 DUP1 SLOAD PUSH1 0x1 PUSH1 0x1 PUSH1 0xA0 SHL SUB AND PUSH2 0x818 JUMPI PUSH1 0x40 MLOAD PUSH4 0x18225C67 PUSH1 0xE2 SHL DUP2 MSTORE PUSH1 0x4 ADD PUSH1 0x40 MLOAD DUP1 SWAP2 SUB SWAP1 REVERT JUMPDEST DUP1 SLOAD PUSH1 0x1 PUSH1 0x1 PUSH1 0xA0 SHL SUB AND CALLER EQ DUP1 ISZERO SWAP1 PUSH2 0x83D JUMPI POP PUSH1 0x0 SLOAD PUSH1 0x1 PUSH1 0x1 PUSH1 0xA0 SHL SUB AND CALLER EQ ISZERO JUMPDEST ISZERO PUSH2 0x85A JUMPI PUSH1 0x40 MLOAD PUSH3 0x82B429 PUSH1 0xE8 SHL DUP2 MSTORE PUSH1 0x4 ADD PUSH1 0x40 MLOAD DUP1 SWAP2 SUB SWAP1 REVERT JUMPDEST DUP2 PUSH1 0x2 DUP3 ADD PUSH2 0x869 DUP3 DUP3 PUSH2 0xFC6 JUMP JUMPDEST POP POP PUSH1 0x40 MLOAD DUP4 SWAP1 PUSH32 0x7743CF5E4B312871B672F40B44C826422CAFB560C4708B2C6A64925A7F98055A SWAP1 PUSH1 0x0 SWAP1 LOG2 POP POP POP JUMP JUMPDEST PUSH1 0x0 DUP1 PUSH2 0x8AE PUSH1 0xA0 DUP5 ADD PUSH1 0x80 DUP6 ADD PUSH2 0x10DA JUMP JUMPDEST PUSH2 0xFFFF AND PUSH2 0x8C2 PUSH1 0x80 DUP6 ADD PUSH1 0x60 DUP7 ADD PUSH2 0x10DA JUMP JUMPDEST PUSH2 0xFFFF AND PUSH2 0x8D6 PUSH1 0x60 DUP7 ADD PUSH1 0x40 DUP8 ADD PUSH2 0x10DA JUMP JUMPDEST PUSH2 0xFFFF AND PUSH2 0x8EA PUSH1 0x40 DUP8 ADD PUSH1 0x20 DUP9 ADD PUSH2 0x10DA JUMP JUMPDEST PUSH2 0xFFFF AND PUSH2 0x8FB PUSH1 0x20 DUP9 ADD DUP9 PUSH2 0x10DA JUMP JUMPDEST PUSH2 0xFFFF AND PUSH2 0x909 SWAP2 SWAP1 PUSH2 0x110D JUMP JUMPDEST PUSH2 0x913 SWAP2 SWAP1 PUSH2 0x110D JUMP JUMPDEST PUSH2 0x91D SWAP2 SWAP1 PUSH2 0x110D JUMP JUMPDEST PUSH2 0x927 SWAP2 SWAP1 PUSH2 0x110D JUMP JUMPDEST PUSH2 0x2710 EQ SWAP4 SWAP3 POP POP POP JUMP JUMPDEST PUSH1 0x0 DUP1 JUMPDEST DUP3 DUP2 LT ISZERO PUSH2 0xA1F JUMPI CALLDATASIZE DUP5 DUP5 DUP4 DUP2 DUP2 LT PUSH2 0x951 JUMPI PUSH2 0x951 PUSH2 0x1120 JUMP JUMPDEST PUSH1 0x40 MUL SWAP2 SWAP1 SWAP2 ADD SWAP2 POP POP DUP1 CALLDATALOAD PUSH2 0x979 JUMPI PUSH1 0x40 MLOAD PUSH3 0x82B429 PUSH1 0xE8 SHL DUP2 MSTORE PUSH1 0x4 ADD PUSH1 0x40 MLOAD DUP1 SWAP2 SUB SWAP1 REVERT JUMPDEST PUSH2 0x989 PUSH1 0x40 DUP3 ADD PUSH1 0x20 DUP4 ADD PUSH2 0x10DA JUMP JUMPDEST PUSH2 0x997 SWAP1 PUSH2 0xFFFF AND DUP5 PUSH2 0x110D JUMP JUMPDEST PUSH1 0x0 DUP8 DUP2 MSTORE PUSH1 0x2 PUSH1 0x20 SWAP1 DUP2 MSTORE PUSH1 0x40 SWAP2 DUP3 SWAP1 KECCAK256 DUP3 MLOAD DUP1 DUP5 ADD DUP5 MSTORE DUP6 CALLDATALOAD DUP2 MSTORE SWAP4 SWAP7 POP SWAP3 SWAP2 DUP3 DUP3 ADD SWAP2 PUSH2 0x9CB SWAP2 DUP7 ADD SWAP1 DUP7 ADD PUSH2 0x10DA JUMP JUMPDEST PUSH2 0xFFFF SWAP1 DUP2 AND SWAP1 SWAP2 MSTORE DUP3 SLOAD PUSH1 0x1 DUP2 DUP2 ADD DUP6 SSTORE PUSH1 0x0 SWAP5 DUP6 MSTORE PUSH1 0x20 SWAP5 DUP6 SWAP1 KECCAK256 DUP5 MLOAD PUSH1 0x2 SWAP1 SWAP4 MUL ADD SWAP2 DUP3 SSTORE SWAP4 SWAP1 SWAP3 ADD MLOAD SWAP2 SWAP1 SWAP3 ADD DUP1 SLOAD SWAP2 SWAP1 SWAP3 AND PUSH2 0xFFFF NOT SWAP1 SWAP2 AND OR SWAP1 SSTORE POP DUP1 PUSH2 0xA17 DUP2 PUSH2 0x1136 JUMP JUMPDEST SWAP2 POP POP PUSH2 0x936 JUMP JUMPDEST POP PUSH2 0x2710 DUP2 GT ISZERO PUSH2 0xA6D JUMPI PUSH1 0x40 MLOAD PUSH3 0x461BCD PUSH1 0xE5 SHL DUP2 MSTORE PUSH1 0x20 PUSH1 0x4 DUP3 ADD MSTORE PUSH1 0x14 PUSH1 0x24 DUP3 ADD MSTORE PUSH20 0x149959DA5CDD1C9E4E881BDD995C9DD95A59DA1D PUSH1 0x62 SHL PUSH1 0x44 DUP3 ADD MSTORE PUSH1 0x64 ADD PUSH1 0x40 MLOAD DUP1 SWAP2 SUB SWAP1 REVERT JUMPDEST POP POP POP POP JUMP JUMPDEST POP DUP1 SLOAD PUSH1 0x0 DUP3 SSTORE PUSH1 0x2 MUL SWAP1 PUSH1 0x0 MSTORE PUSH1 0x20 PUSH1 0x0 KECCAK256 SWAP1 DUP2 ADD SWAP1 PUSH2 0xA94 SWAP2 SWAP1 PUSH2 0xA97 JUMP JUMPDEST POP JUMP JUMPDEST JUMPDEST DUP1 DUP3 GT ISZERO PUSH2 0xAB9 JUMPI PUSH1 0x0 DUP2 SSTORE PUSH1 0x1 DUP2 ADD DUP1 SLOAD PUSH2 0xFFFF NOT AND SWAP1 SSTORE PUSH1 0x2 ADD PUSH2 0xA98 JUMP JUMPDEST POP SWAP1 JUMP JUMPDEST DUP1 CALLDATALOAD DUP1 ISZERO ISZERO DUP2 EQ PUSH2 0xACD JUMPI PUSH1 0x0 DUP1 REVERT JUMPDEST SWAP2 SWAP1 POP JUMP JUMPDEST PUSH1 0x0 DUP1 PUSH1 0x40 DUP4 DUP6 SUB SLT ISZERO PUSH2 0xAE5 JUMPI PUSH1 0x0 DUP1 REVERT JUMPDEST DUP3 CALLDATALOAD SWAP2 POP PUSH2 0xAF5 PUSH1 0x20 DUP5 ADD PUSH2 0xABD JUMP JUMPDEST SWAP1 POP SWAP3 POP SWAP3 SWAP1 POP JUMP JUMPDEST DUP1 CALLDATALOAD PUSH1 0x1 PUSH1 0x1 PUSH1 0xA0 SHL SUB DUP2 AND DUP2 EQ PUSH2 0xACD JUMPI PUSH1 0x0 DUP1 REVERT JUMPDEST PUSH1 0x0 PUSH1 0x20 DUP3 DUP5 SUB SLT ISZERO PUSH2 0xB27 JUMPI PUSH1 0x0 DUP1 REVERT JUMPDEST PUSH2 0xB30 DUP3 PUSH2 0xAFE JUMP JUMPDEST SWAP4 SWAP3 POP POP POP JUMP JUMPDEST PUSH1 0x0 PUSH1 0xA0 DUP3 DUP5 SUB SLT ISZERO PUSH2 0xB49 JUMPI PUSH1 0x0 DUP1 REVERT JUMPDEST POP SWAP2 SWAP1 POP JUMP JUMPDEST PUSH1 0x0 DUP1 DUP4 PUSH1 0x1F DUP5 ADD SLT PUSH2 0xB61 JUMPI PUSH1 0x0 DUP1 REVERT JUMPDEST POP DUP2 CALLDATALOAD PUSH8 0xFFFFFFFFFFFFFFFF DUP2 GT ISZERO PUSH2 0xB79 JUMPI PUSH1 0x0 DUP1 REVERT JUMPDEST PUSH1 0x20 DUP4 ADD SWAP2 POP DUP4 PUSH1 0x20 DUP3 PUSH1 0x6 SHL DUP6 ADD ADD GT ISZERO PUSH2 0xB94 JUMPI PUSH1 0x0 DUP1 REVERT JUMPDEST SWAP3 POP SWAP3 SWAP1 POP JUMP JUMPDEST PUSH1 0x0 DUP1 PUSH1 0x0 DUP1 PUSH1 0x0 DUP1 PUSH2 0x100 DUP8 DUP10 SUB SLT ISZERO PUSH2 0xBB5 JUMPI PUSH1 0x0 DUP1 REVERT JUMPDEST DUP7 CALLDATALOAD SWAP6 POP PUSH1 0x20 DUP8 ADD CALLDATALOAD PUSH8 0xFFFFFFFFFFFFFFFF DUP1 DUP3 GT ISZERO PUSH2 0xBD4 JUMPI PUSH1 0x0 DUP1 REVERT JUMPDEST DUP2 DUP10 ADD SWAP2 POP DUP10 PUSH1 0x1F DUP4 ADD SLT PUSH2 0xBE8 JUMPI PUSH1 0x0 DUP1 REVERT JUMPDEST DUP2 CALLDATALOAD DUP2 DUP2 GT ISZERO PUSH2 0xBF7 JUMPI PUSH1 0x0 DUP1 REVERT JUMPDEST DUP11 PUSH1 0x20 DUP3 DUP6 ADD ADD GT ISZERO PUSH2 0xC09 JUMPI PUSH1 0x0 DUP1 REVERT JUMPDEST PUSH1 0x20 DUP4 ADD SWAP8 POP SWAP6 POP PUSH2 0xC1E DUP11 PUSH1 0x40 DUP12 ADD PUSH2 0xB37 JUMP JUMPDEST SWAP5 POP PUSH1 0xE0 DUP10 ADD CALLDATALOAD SWAP2 POP DUP1 DUP3 GT ISZERO PUSH2 0xC34 JUMPI PUSH1 0x0 DUP1 REVERT JUMPDEST POP PUSH2 0xC41 DUP10 DUP3 DUP11 ADD PUSH2 0xB4F JUMP JUMPDEST SWAP8 SWAP11 SWAP7 SWAP10 POP SWAP5 SWAP8 POP SWAP3 SWAP6 SWAP4 SWAP5 SWAP3 POP POP POP JUMP JUMPDEST PUSH1 0x0 DUP1 PUSH1 0x40 DUP4 DUP6 SUB SLT ISZERO PUSH2 0xC66 JUMPI PUSH1 0x0 DUP1 REVERT JUMPDEST PUSH2 0xC6F DUP4 PUSH2 0xAFE JUMP JUMPDEST SWAP2 POP PUSH2 0xAF5 PUSH1 0x20 DUP5 ADD PUSH2 0xABD JUMP JUMPDEST PUSH1 0x0 PUSH1 0x20 DUP3 DUP5 SUB SLT ISZERO PUSH2 0xC8F JUMPI PUSH1 0x0 DUP1 REVERT JUMPDEST POP CALLDATALOAD SWAP2 SWAP1 POP JUMP JUMPDEST PUSH1 0x0 DUP2 MLOAD DUP1 DUP5 MSTORE PUSH1 0x20 DUP1 DUP6 ADD SWAP5 POP DUP1 DUP5 ADD PUSH1 0x0 JUMPDEST DUP4 DUP2 LT ISZERO PUSH2 0xCD5 JUMPI DUP2 MLOAD DUP1 MLOAD DUP9 MSTORE DUP4 ADD MLOAD PUSH2 0xFFFF AND DUP4 DUP9 ADD MSTORE PUSH1 0x40 SWAP1 SWAP7 ADD SWAP6 SWAP1 DUP3 ADD SWAP1 PUSH1 0x1 ADD PUSH2 0xCAA JUMP JUMPDEST POP SWAP5 SWAP6 SWAP5 POP POP POP POP POP JUMP JUMPDEST PUSH1 0x40 DUP2 MSTORE PUSH1 0x1 DUP1 PUSH1 0xA0 SHL SUB DUP4 MLOAD AND PUSH1 0x40 DUP3 ADD MSTORE PUSH1 0x0 PUSH1 0x20 DUP1 DUP6 ADD MLOAD PUSH2 0x120 DUP1 PUSH1 0x60 DUP7 ADD MSTORE DUP2 MLOAD DUP1 PUSH2 0x160 DUP8 ADD MSTORE PUSH1 0x0 JUMPDEST DUP2 DUP2 LT ISZERO PUSH2 0xD2D JUMPI DUP4 DUP2 ADD DUP6 ADD MLOAD DUP8 DUP3 ADD PUSH2 0x180 ADD MSTORE DUP5 ADD PUSH2 0xD10 JUMP JUMPDEST POP PUSH2 0x180 SWAP3 POP PUSH1 0x0 DUP4 DUP3 DUP9 ADD ADD MSTORE PUSH1 0x1F NOT PUSH1 0x1F DUP3 ADD AND DUP7 ADD SWAP1 POP PUSH1 0x40 DUP9 ADD MLOAD PUSH2 0xD92 PUSH1 0x80 DUP9 ADD DUP3 PUSH2 0xFFFF DUP1 DUP3 MLOAD AND DUP4 MSTORE DUP1 PUSH1 0x20 DUP4 ADD MLOAD AND PUSH1 0x20 DUP5 ADD MSTORE DUP1 PUSH1 0x40 DUP4 ADD MLOAD AND PUSH1 0x40 DUP5 ADD MSTORE DUP1 PUSH1 0x60 DUP4 ADD MLOAD AND PUSH1 0x60 DUP5 ADD MSTORE DUP1 PUSH1 0x80 DUP4 ADD MLOAD AND PUSH1 0x80 DUP5 ADD MSTORE POP POP POP JUMP JUMPDEST POP PUSH1 0x60 DUP9 ADD MLOAD DUP1 ISZERO ISZERO DUP8 DUP5 ADD MSTORE POP PUSH1 0x80 DUP9 ADD MLOAD PUSH8 0xFFFFFFFFFFFFFFFF DUP2 AND PUSH2 0x140 DUP9 ADD MSTORE SWAP2 POP DUP3 DUP7 DUP3 SUB ADD DUP5 DUP8 ADD MSTORE PUSH2 0xDCD DUP4 DUP3 ADD DUP9 PUSH2 0xC96 JUMP JUMPDEST SWAP9 SWAP8 POP POP POP POP POP POP POP POP JUMP JUMPDEST PUSH1 0x0 DUP1 PUSH1 0x0 PUSH1 0x40 DUP5 DUP7 SUB SLT ISZERO PUSH2 0xDEE JUMPI PUSH1 0x0 DUP1 REVERT JUMPDEST DUP4 CALLDATALOAD SWAP3 POP PUSH1 0x20 DUP5 ADD CALLDATALOAD PUSH8 0xFFFFFFFFFFFFFFFF DUP2 GT ISZERO PUSH2 0xE0C JUMPI PUSH1 0x0 DUP1 REVERT JUMPDEST PUSH2 0xE18 DUP7 DUP3 DUP8 ADD PUSH2 0xB4F JUMP JUMPDEST SWAP5 SWAP8 SWAP1 SWAP7 POP SWAP4 SWAP5 POP POP POP POP JUMP JUMPDEST PUSH1 0x0 DUP1 PUSH1 0xC0 DUP4 DUP6 SUB SLT ISZERO PUSH2 0xE38 JUMPI PUSH1 0x0 DUP1 REVERT JUMPDEST DUP3 CALLDATALOAD SWAP2 POP PUSH2 0xAF5 DUP5 PUSH1 0x20 DUP6 ADD PUSH2 0xB37 JUMP JUMPDEST PUSH4 0x4E487B71 PUSH1 0xE0 SHL PUSH1 0x0 MSTORE PUSH1 0x41 PUSH1 0x4 MSTORE PUSH1 0x24 PUSH1 0x0 REVERT JUMPDEST PUSH1 0x1 DUP2 DUP2 SHR SWAP1 DUP3 AND DUP1 PUSH2 0xE73 JUMPI PUSH1 0x7F DUP3 AND SWAP2 POP JUMPDEST PUSH1 0x20 DUP3 LT DUP2 SUB PUSH2 0xB49 JUMPI PUSH4 0x4E487B71 PUSH1 0xE0 SHL PUSH1 0x0 MSTORE PUSH1 0x22 PUSH1 0x4 MSTORE PUSH1 0x24 PUSH1 0x0 REVERT JUMPDEST PUSH1 0x1F DUP3 GT ISZERO PUSH2 0xEDD JUMPI PUSH1 0x0 DUP2 DUP2 MSTORE PUSH1 0x20 DUP2 KECCAK256 PUSH1 0x1F DUP6 ADD PUSH1 0x5 SHR DUP2 ADD PUSH1 0x20 DUP7 LT ISZERO PUSH2 0xEBA JUMPI POP DUP1 JUMPDEST PUSH1 0x1F DUP6 ADD PUSH1 0x5 SHR DUP3 ADD SWAP2 POP JUMPDEST DUP2 DUP2 LT ISZERO PUSH2 0xED9 JUMPI DUP3 DUP2 SSTORE PUSH1 0x1 ADD PUSH2 0xEC6 JUMP JUMPDEST POP POP POP JUMPDEST POP POP POP JUMP JUMPDEST PUSH8 0xFFFFFFFFFFFFFFFF DUP4 GT ISZERO PUSH2 0xEFA JUMPI PUSH2 0xEFA PUSH2 0xE49 JUMP JUMPDEST PUSH2 0xF0E DUP4 PUSH2 0xF08 DUP4 SLOAD PUSH2 0xE5F JUMP JUMPDEST DUP4 PUSH2 0xE93 JUMP JUMPDEST PUSH1 0x0 PUSH1 0x1F DUP5 GT PUSH1 0x1 DUP2 EQ PUSH2 0xF42 JUMPI PUSH1 0x0 DUP6 ISZERO PUSH2 0xF2A JUMPI POP DUP4 DUP3 ADD CALLDATALOAD JUMPDEST PUSH1 0x0 NOT PUSH1 0x3 DUP8 SWAP1 SHL SHR NOT AND PUSH1 0x1 DUP7 SWAP1 SHL OR DUP4 SSTORE PUSH2 0xF9C JUMP JUMPDEST PUSH1 0x0 DUP4 DUP2 MSTORE PUSH1 0x20 SWAP1 KECCAK256 PUSH1 0x1F NOT DUP7 AND SWAP1 DUP4 JUMPDEST DUP3 DUP2 LT ISZERO PUSH2 0xF73 JUMPI DUP7 DUP6 ADD CALLDATALOAD DUP3 SSTORE PUSH1 0x20 SWAP5 DUP6 ADD SWAP5 PUSH1 0x1 SWAP1 SWAP3 ADD SWAP2 ADD PUSH2 0xF53 JUMP JUMPDEST POP DUP7 DUP3 LT ISZERO PUSH2 0xF90 JUMPI PUSH1 0x0 NOT PUSH1 0xF8 DUP9 PUSH1 0x3 SHL AND SHR NOT DUP5 DUP8 ADD CALLDATALOAD AND DUP2 SSTORE JUMPDEST POP POP PUSH1 0x1 DUP6 PUSH1 0x1 SHL ADD DUP4 SSTORE JUMPDEST POP POP POP POP POP JUMP JUMPDEST PUSH2 0xFFFF DUP2 AND DUP2 EQ PUSH2 0xA94 JUMPI PUSH1 0x0 DUP1 REVERT JUMPDEST PUSH1 0x0 DUP2 CALLDATALOAD PUSH2 0xFC0 DUP2 PUSH2 0xFA3 JUMP JUMPDEST SWAP3 SWAP2 POP POP JUMP JUMPDEST DUP2 CALLDATALOAD PUSH2 0xFD1 DUP2 PUSH2 0xFA3 JUMP JUMPDEST PUSH2 0xFFFF DUP2 AND SWAP1 POP DUP2 SLOAD DUP2 PUSH2 0xFFFF NOT DUP3 AND OR DUP4 SSTORE PUSH1 0x20 DUP5 ADD CALLDATALOAD PUSH2 0xFF2 DUP2 PUSH2 0xFA3 JUMP JUMPDEST PUSH4 0xFFFF0000 DUP2 PUSH1 0x10 SHL AND SWAP1 POP DUP1 DUP4 PUSH4 0xFFFFFFFF NOT DUP5 AND OR OR DUP5 SSTORE PUSH1 0x40 DUP6 ADD CALLDATALOAD PUSH2 0x101A DUP2 PUSH2 0xFA3 JUMP JUMPDEST PUSH6 0xFFFF00000000 DUP2 PUSH1 0x20 SHL AND SWAP1 POP DUP4 PUSH6 0xFFFFFFFFFFFF NOT DUP5 AND OR SWAP4 POP DUP1 DUP5 DUP4 OR OR DUP6 SSTORE PUSH1 0x60 DUP7 ADD CALLDATALOAD SWAP3 POP PUSH2 0x104D DUP4 PUSH2 0xFA3 JUMP JUMPDEST PUSH8 0xFFFF000000000000 DUP4 PUSH1 0x30 SHL AND PUSH8 0xFFFF000000000000 NOT DUP6 AND DUP4 OR DUP3 OR OR DUP6 SSTORE POP POP POP POP PUSH2 0x10A7 PUSH2 0x1081 PUSH1 0x80 DUP5 ADD PUSH2 0xFB3 JUMP JUMPDEST DUP3 SLOAD PUSH10 0xFFFF0000000000000000 NOT AND PUSH1 0x40 SWAP2 SWAP1 SWAP2 SHL PUSH10 0xFFFF0000000000000000 AND OR DUP3 SSTORE JUMP JUMPDEST POP POP JUMP JUMPDEST PUSH1 0x20 DUP2 MSTORE DUP2 PUSH1 0x20 DUP3 ADD MSTORE DUP2 DUP4 PUSH1 0x40 DUP4 ADD CALLDATACOPY PUSH1 0x0 DUP2 DUP4 ADD PUSH1 0x40 SWAP1 DUP2 ADD SWAP2 SWAP1 SWAP2 MSTORE PUSH1 0x1F SWAP1 SWAP3 ADD PUSH1 0x1F NOT AND ADD ADD SWAP2 SWAP1 POP JUMP JUMPDEST PUSH1 0x0 PUSH1 0x20 DUP3 DUP5 SUB SLT ISZERO PUSH2 0x10EC JUMPI PUSH1 0x0 DUP1 REVERT JUMPDEST DUP2 CALLDATALOAD PUSH2 0xB30 DUP2 PUSH2 0xFA3 JUMP JUMPDEST PUSH4 0x4E487B71 PUSH1 0xE0 SHL PUSH1 0x0 MSTORE PUSH1 0x11 PUSH1 0x4 MSTORE PUSH1 0x24 PUSH1 0x0 REVERT JUMPDEST DUP1 DUP3 ADD DUP1 DUP3 GT ISZERO PUSH2 0xFC0 JUMPI PUSH2 0xFC0 PUSH2 0x10F7 JUMP JUMPDEST PUSH4 0x4E487B71 PUSH1 0xE0 SHL PUSH1 0x0 MSTORE PUSH1 0x32 PUSH1 0x4 MSTORE PUSH1 0x24 PUSH1 0x0 REVERT JUMPDEST PUSH1 0x0 PUSH1 0x1 DUP3 ADD PUSH2 0x1148 JUMPI PUSH2 0x1148 PUSH2 0x10F7 JUMP JUMPDEST POP PUSH1 0x1 ADD SWAP1 JUMP INVALID LOG2 PUSH5 0x6970667358 0x22 SLT KECCAK256 LOG2 0xF8 0xF6 SLT SWAP10 0x25 0xD0 SELFBALANCE 0xA6 0x5D PUSH16 0x6D8F01A9DB19AAF22E90DB2FF24518D1 BYTE SWAP7 0x4E STATICCALL DUP8 PUSH5 0x736F6C6343 STOP ADDMOD EQ STOP CALLER "},"methodIdentifiers":{"BPS()":"249d39e9","attestors(address)":"1338e957","flagWorkflow(bytes32,bool)":"11110762","getWorkflow(bytes32)":"bc62a9c3","governance()":"5aa6e675","registerWorkflow(bytes32,string,(uint16,uint16,uint16,uint16,uint16),(bytes32,uint16)[])":"17552236","setAttestor(address,bool)":"41724dd0","setGovernance(address)":"ab033ea9","updateDependencies(bytes32,(bytes32,uint16)[])":"e3a4ef58","updateRoyaltyRoute(bytes32,(uint16,uint16,uint16,uint16,uint16))":"e70297ca"}}}}}