{
  "_format": "hh-sol-artifact-1",
  "contractName": "WorkflowRegistry",
  "sourceName": "contracts/WorkflowRegistry.sol",
  "abi": [
    {
      "inputs": [
        {
          "internalType": "address",
          "name": "initialGovernance",
          "type": "address"
        }
      ],
      "stateMutability": "nonpayable",
      "type": "constructor"
    },
    {
      "inputs": [],
      "name": "InvalidSplit",
      "type": "error"
    },
    {
      "inputs": [],
      "name": "Unauthorized",
      "type": "error"
    },
    {
      "inputs": [],
      "name": "UnknownWorkflow",
      "type": "error"
    },
    {
      "inputs": [],
      "name": "WorkflowExists",
      "type": "error"
    },
    {
      "anonymous": false,
      "inputs": [
        {
          "indexed": true,
          "internalType": "address",
          "name": "attestor",
          "type": "address"
        },
        {
          "indexed": false,
          "internalType": "bool",
          "name": "approved",
          "type": "bool"
        }
      ],
      "name": "AttestorUpdated",
      "type": "event"
    },
    {
      "anonymous": false,
      "inputs": [
        {
          "indexed": true,
          "internalType": "address",
          "name": "newGovernance",
          "type": "address"
        }
      ],
      "name": "GovernanceUpdated",
      "type": "event"
    },
    {
      "anonymous": false,
      "inputs": [
        {
          "indexed": true,
          "internalType": "bytes32",
          "name": "workflowId",
          "type": "bytes32"
        },
        {
          "indexed": false,
          "internalType": "bool",
          "name": "flagged",
          "type": "bool"
        },
        {
          "indexed": true,
          "internalType": "address",
          "name": "attestor",
          "type": "address"
        }
      ],
      "name": "WorkflowFlagged",
      "type": "event"
    },
    {
      "anonymous": false,
      "inputs": [
        {
          "indexed": true,
          "internalType": "bytes32",
          "name": "workflowId",
          "type": "bytes32"
        },
        {
          "indexed": true,
          "internalType": "address",
          "name": "creator",
          "type": "address"
        },
        {
          "indexed": false,
          "internalType": "string",
          "name": "metadataURI",
          "type": "string"
        }
      ],
      "name": "WorkflowRegistered",
      "type": "event"
    },
    {
      "anonymous": false,
      "inputs": [
        {
          "indexed": true,
          "internalType": "bytes32",
          "name": "workflowId",
          "type": "bytes32"
        }
      ],
      "name": "WorkflowUpdated",
      "type": "event"
    },
    {
      "inputs": [],
      "name": "BPS",
      "outputs": [
        {
          "internalType": "uint16",
          "name": "",
          "type": "uint16"
        }
      ],
      "stateMutability": "view",
      "type": "function"
    },
    {
      "inputs": [
        {
          "internalType": "address",
          "name": "",
          "type": "address"
        }
      ],
      "name": "attestors",
      "outputs": [
        {
          "internalType": "bool",
          "name": "",
          "type": "bool"
        }
      ],
      "stateMutability": "view",
      "type": "function"
    },
    {
      "inputs": [
        {
          "internalType": "bytes32",
          "name": "workflowId",
          "type": "bytes32"
        },
        {
          "internalType": "bool",
          "name": "flagged",
          "type": "bool"
        }
      ],
      "name": "flagWorkflow",
      "outputs": [],
      "stateMutability": "nonpayable",
      "type": "function"
    },
    {
      "inputs": [
        {
          "internalType": "bytes32",
          "name": "workflowId",
          "type": "bytes32"
        }
      ],
      "name": "getWorkflow",
      "outputs": [
        {
          "components": [
            {
              "internalType": "address",
              "name": "creator",
              "type": "address"
            },
            {
              "internalType": "string",
              "name": "metadataURI",
              "type": "string"
            },
            {
              "components": [
                {
                  "internalType": "uint16",
                  "name": "creatorBps",
                  "type": "uint16"
                },
                {
                  "internalType": "uint16",
                  "name": "upstreamBps",
                  "type": "uint16"
                },
                {
                  "internalType": "uint16",
                  "name": "nodeBps",
                  "type": "uint16"
                },
                {
                  "internalType": "uint16",
                  "name": "validatorBps",
                  "type": "uint16"
                },
                {
                  "internalType": "uint16",
                  "name": "treasuryBps",
                  "type": "uint16"
                }
              ],
              "internalType": "struct WorkflowRegistry.RoyaltyRoute",
              "name": "route",
              "type": "tuple"
            },
            {
              "internalType": "bool",
              "name": "flagged",
              "type": "bool"
            },
            {
              "internalType": "uint64",
              "name": "createdAt",
              "type": "uint64"
            }
          ],
          "internalType": "struct WorkflowRegistry.Workflow",
          "name": "wf",
          "type": "tuple"
        },
        {
          "components": [
            {
              "internalType": "bytes32",
              "name": "assetId",
              "type": "bytes32"
            },
            {
              "internalType": "uint16",
              "name": "weightBps",
              "type": "uint16"
            }
          ],
          "internalType": "struct WorkflowRegistry.Dependency[]",
          "name": "deps",
          "type": "tuple[]"
        }
      ],
      "stateMutability": "view",
      "type": "function"
    },
    {
      "inputs": [],
      "name": "governance",
      "outputs": [
        {
          "internalType": "address",
          "name": "",
          "type": "address"
        }
      ],
      "stateMutability": "view",
      "type": "function"
    },
    {
      "inputs": [
        {
          "internalType": "bytes32",
          "name": "workflowId",
          "type": "bytes32"
        },
        {
          "internalType": "string",
          "name": "metadataURI",
          "type": "string"
        },
        {
          "components": [
            {
              "internalType": "uint16",
              "name": "creatorBps",
              "type": "uint16"
            },
            {
              "internalType": "uint16",
              "name": "upstreamBps",
              "type": "uint16"
            },
            {
              "internalType": "uint16",
              "name": "nodeBps",
              "type": "uint16"
            },
            {
              "internalType": "uint16",
              "name": "validatorBps",
              "type": "uint16"
            },
            {
              "internalType": "uint16",
              "name": "treasuryBps",
              "type": "uint16"
            }
          ],
          "internalType": "struct WorkflowRegistry.RoyaltyRoute",
          "name": "route",
          "type": "tuple"
        },
        {
          "components": [
            {
              "internalType": "bytes32",
              "name": "assetId",
              "type": "bytes32"
            },
            {
              "internalType": "uint16",
              "name": "weightBps",
              "type": "uint16"
            }
          ],
          "internalType": "struct WorkflowRegistry.DependencyInput[]",
          "name": "dependencyInputs",
          "type": "tuple[]"
        }
      ],
      "name": "registerWorkflow",
      "outputs": [],
      "stateMutability": "nonpayable",
      "type": "function"
    },
    {
      "inputs": [
        {
          "internalType": "address",
          "name": "attestor",
          "type": "address"
        },
        {
          "internalType": "bool",
          "name": "approved",
          "type": "bool"
        }
      ],
      "name": "setAttestor",
      "outputs": [],
      "stateMutability": "nonpayable",
      "type": "function"
    },
    {
      "inputs": [
        {
          "internalType": "address",
          "name": "newGovernance",
          "type": "address"
        }
      ],
      "name": "setGovernance",
      "outputs": [],
      "stateMutability": "nonpayable",
      "type": "function"
    },
    {
      "inputs": [
        {
          "internalType": "bytes32",
          "name": "workflowId",
          "type": "bytes32"
        },
        {
          "components": [
            {
              "internalType": "bytes32",
              "name": "assetId",
              "type": "bytes32"
            },
            {
              "internalType": "uint16",
              "name": "weightBps",
              "type": "uint16"
            }
          ],
          "internalType": "struct WorkflowRegistry.DependencyInput[]",
          "name": "dependencyInputs",
          "type": "tuple[]"
        }
      ],
      "name": "updateDependencies",
      "outputs": [],
      "stateMutability": "nonpayable",
      "type": "function"
    },
    {
      "inputs": [
        {
          "internalType": "bytes32",
          "name": "workflowId",
          "type": "bytes32"
        },
        {
          "components": [
            {
              "internalType": "uint16",
              "name": "creatorBps",
              "type": "uint16"
            },
            {
              "internalType": "uint16",
              "name": "upstreamBps",
              "type": "uint16"
            },
            {
              "internalType": "uint16",
              "name": "nodeBps",
              "type": "uint16"
            },
            {
              "internalType": "uint16",
              "name": "validatorBps",
              "type": "uint16"
            },
            {
              "internalType": "uint16",
              "name": "treasuryBps",
              "type": "uint16"
            }
          ],
          "internalType": "struct WorkflowRegistry.RoyaltyRoute",
          "name": "route",
          "type": "tuple"
        }
      ],
      "name": "updateRoyaltyRoute",
      "outputs": [],
      "stateMutability": "nonpayable",
      "type": "function"
    }
  ],
  "bytecode": "0x608060405234801561001057600080fd5b5060405161123038038061123083398101604081905261002f9161006c565b6001600160a01b038116156100445780610046565b335b600080546001600160a01b0319166001600160a01b03929092169190911790555061009c565b60006020828403121561007e57600080fd5b81516001600160a01b038116811461009557600080fd5b9392505050565b611185806100ab6000396000f3fe608060405234801561001057600080fd5b506004361061009e5760003560e01c80635aa6e675116100665780635aa6e67514610132578063ab033ea91461015d578063bc62a9c314610170578063e3a4ef5814610191578063e70297ca146101a457600080fd5b806311110762146100a35780631338e957146100b857806317552236146100f0578063249d39e91461010357806341724dd01461011f575b600080fd5b6100b66100b1366004610ad2565b6101b7565b005b6100db6100c6366004610b15565b60036020526000908152604090205460ff1681565b60405190151581526020015b60405180910390f35b6100b66100fe366004610b9b565b610284565b61010c61271081565b60405161ffff90911681526020016100e7565b6100b661012d366004610c53565b61038e565b600054610145906001600160a01b031681565b6040516001600160a01b0390911681526020016100e7565b6100b661016b366004610b15565b610417565b61018361017e366004610c7d565b6104af565b6040516100e7929190610ce0565b6100b661019f366004610dd9565b6106f1565b6100b66101b2366004610e25565b6107bc565b3360009081526003602052604090205460ff161580156101e257506000546001600160a01b03163314155b156101ff576040516282b42960e81b815260040160405180910390fd5b600082815260016020526040902080546001600160a01b0316610235576040516318225c6760e21b815260040160405180910390fd5b60038101805460ff1916831515908117909155604051908152339084907f61a76e700d447c48a9b407ca92db57a69d3992a81e0282641326dbee11d0b2a39060200160405180910390a3505050565b600086815260016020526040902080546001600160a01b0316156102bb57604051633af07fff60e11b815260040160405180910390fd5b6102c48461089b565b6102e15760405163bcd55b0f60e01b815260040160405180910390fd5b80546001600160a01b0319163317815560018101610300868883610ee2565b5083600282016103108282610fc6565b505060038101805468ffffffffffffffff0019166101004267ffffffffffffffff1602179055610341878484610932565b336001600160a01b0316877f356be2e4d6c92162f17c47e27b1732f0fdd5b8f25e5b576e4d03ace3b9625839888860405161037d9291906110ab565b60405180910390a350505050505050565b6000546001600160a01b031633146103b8576040516282b42960e81b815260040160405180910390fd5b6001600160a01b038216600081815260036020908152604091829020805460ff191685151590811790915591519182527f93b8543bdf0aade4f1b01f7bc7eccaa0d387724a3b85d45b5edb4c03bd8824b5910160405180910390a25050565b6000546001600160a01b03163314610441576040516282b42960e81b815260040160405180910390fd5b6001600160a01b038116610467576040516282b42960e81b815260040160405180910390fd5b600080546001600160a01b0319166001600160a01b038316908117825560405190917f9d3e522e1e47a2f6009739342b9cc7b252a1888154e843ab55ee1c81745795ab91a250565b6105046040805160a08082018352600080835260606020808501829052855193840186528284528301829052828501829052820181905260808201529091820190815260006020820181905260409091015290565b600082815260016020818152604092839020835160a0810190945280546001600160a01b03168452918201805460609493928401919061054390610e5f565b80601f016020809104026020016040519081016040528092919081815260200182805461056f90610e5f565b80156105bc5780601f10610591576101008083540402835291602001916105bc565b820191906000526020600020905b81548152906001019060200180831161059f57829003601f168201915b50505091835250506040805160a081018252600284015461ffff80821683526201000082048116602080850191909152640100000000830482168486015266010000000000008304821660608086019190915268010000000000000000909304909116608084015284019190915260039093015460ff8116151591830191909152610100900467ffffffffffffffff1691015280519092506001600160a01b031661067a576040516318225c6760e21b815260040160405180910390fd5b600083815260026020908152604080832080548251818502810185019093528083529193909284015b828210156106e657600084815260209081902060408051808201909152600285029091018054825260019081015461ffff168284015290835290920191016106a3565b505050509050915091565b600083815260016020526040902080546001600160a01b0316610727576040516318225c6760e21b815260040160405180910390fd5b80546001600160a01b0316331480159061074c57506000546001600160a01b03163314155b15610769576040516282b42960e81b815260040160405180910390fd5b600084815260026020526040812061078091610a73565b61078b848484610932565b60405184907f7743cf5e4b312871b672f40b44c826422cafb560c4708b2c6a64925a7f98055a90600090a250505050565b6107c58161089b565b6107e25760405163bcd55b0f60e01b815260040160405180910390fd5b600082815260016020526040902080546001600160a01b0316610818576040516318225c6760e21b815260040160405180910390fd5b80546001600160a01b0316331480159061083d57506000546001600160a01b03163314155b1561085a576040516282b42960e81b815260040160405180910390fd5b81600282016108698282610fc6565b505060405183907f7743cf5e4b312871b672f40b44c826422cafb560c4708b2c6a64925a7f98055a90600090a2505050565b6000806108ae60a08401608085016110da565b61ffff166108c260808501606086016110da565b61ffff166108d660608601604087016110da565b61ffff166108ea60408701602088016110da565b61ffff166108fb60208801886110da565b61ffff16610909919061110d565b610913919061110d565b61091d919061110d565b610927919061110d565b612710149392505050565b6000805b82811015610a1f573684848381811061095157610951611120565b604002919091019150508035610979576040516282b42960e81b815260040160405180910390fd5b61098960408201602083016110da565b6109979061ffff168461110d565b60008781526002602090815260409182902082518084018452853581529396509291828201916109cb9186019086016110da565b61ffff9081169091528254600181810185556000948552602094859020845160029093020191825593909201519190920180549190921661ffff199091161790555080610a1781611136565b915050610936565b50612710811115610a6d5760405162461bcd60e51b8152602060048201526014602482015273149959da5cdd1c9e4e881bdd995c9dd95a59da1d60621b604482015260640160405180910390fd5b50505050565b5080546000825560020290600052602060002090810190610a949190610a97565b50565b5b80821115610ab9576000815560018101805461ffff19169055600201610a98565b5090565b80358015158114610acd57600080fd5b919050565b60008060408385031215610ae557600080fd5b82359150610af560208401610abd565b90509250929050565b80356001600160a01b0381168114610acd57600080fd5b600060208284031215610b2757600080fd5b610b3082610afe565b9392505050565b600060a08284031215610b4957600080fd5b50919050565b60008083601f840112610b6157600080fd5b50813567ffffffffffffffff811115610b7957600080fd5b6020830191508360208260061b8501011115610b9457600080fd5b9250929050565b6000806000806000806101008789031215610bb557600080fd5b86359550602087013567ffffffffffffffff80821115610bd457600080fd5b818901915089601f830112610be857600080fd5b813581811115610bf757600080fd5b8a6020828501011115610c0957600080fd5b6020830197509550610c1e8a60408b01610b37565b945060e0890135915080821115610c3457600080fd5b50610c4189828a01610b4f565b979a9699509497509295939492505050565b60008060408385031215610c6657600080fd5b610c6f83610afe565b9150610af560208401610abd565b600060208284031215610c8f57600080fd5b5035919050565b600081518084526020808501945080840160005b83811015610cd55781518051885283015161ffff168388015260409096019590820190600101610caa565b509495945050505050565b6040815260018060a01b038351166040820152600060208085015161012080606086015281518061016087015260005b81811015610d2d5783810185015187820161018001528401610d10565b5061018092506000838288010152601f19601f820116860190506040880151610d92608088018261ffff808251168352806020830151166020840152806040830151166040840152806060830151166060840152806080830151166080840152505050565b5060608801518015158784015250608088015167ffffffffffffffff81166101408801529150828682030184870152610dcd83820188610c96565b98975050505050505050565b600080600060408486031215610dee57600080fd5b83359250602084013567ffffffffffffffff811115610e0c57600080fd5b610e1886828701610b4f565b9497909650939450505050565b60008060c08385031215610e3857600080fd5b82359150610af58460208501610b37565b634e487b7160e01b600052604160045260246000fd5b600181811c90821680610e7357607f821691505b602082108103610b4957634e487b7160e01b600052602260045260246000fd5b601f821115610edd57600081815260208120601f850160051c81016020861015610eba5750805b601f850160051c820191505b81811015610ed957828155600101610ec6565b5050505b505050565b67ffffffffffffffff831115610efa57610efa610e49565b610f0e83610f088354610e5f565b83610e93565b6000601f841160018114610f425760008515610f2a5750838201355b600019600387901b1c1916600186901b178355610f9c565b600083815260209020601f19861690835b82811015610f735786850135825560209485019460019092019101610f53565b5086821015610f905760001960f88860031b161c19848701351681555b505060018560011b0183555b5050505050565b61ffff81168114610a9457600080fd5b60008135610fc081610fa3565b92915050565b8135610fd181610fa3565b61ffff8116905081548161ffff1982161783556020840135610ff281610fa3565b63ffff00008160101b169050808363ffffffff19841617178455604085013561101a81610fa3565b65ffff000000008160201b1690508365ffffffffffff198416179350808483171785556060860135925061104d83610fa3565b67ffff0000000000008360301b1667ffff00000000000019851683178217178555505050506110a761108160808401610fb3565b825469ffff0000000000000000191660409190911b69ffff000000000000000016178255565b5050565b60208152816020820152818360408301376000818301604090810191909152601f909201601f19160101919050565b6000602082840312156110ec57600080fd5b8135610b3081610fa3565b634e487b7160e01b600052601160045260246000fd5b80820180821115610fc057610fc06110f7565b634e487b7160e01b600052603260045260246000fd5b600060018201611148576111486110f7565b506001019056fea2646970667358221220a2f8f6129925d047a65d6f6d8f01a9db19aaf22e90db2ff24518d11a964efa8764736f6c63430008140033",
  "linkReferences": {},
  "deployedLinkReferences": {}
}