{
  "_format": "hh-sol-artifact-1",
  "contractName": "HAI",
  "sourceName": "contracts/HAI.sol",
  "abi": [
    {
      "inputs": [
        {
          "internalType": "address",
          "name": "initialGovernance",
          "type": "address"
        },
        {
          "internalType": "address",
          "name": "initialEmitter",
          "type": "address"
        }
      ],
      "stateMutability": "nonpayable",
      "type": "constructor"
    },
    {
      "anonymous": false,
      "inputs": [
        {
          "indexed": true,
          "internalType": "address",
          "name": "owner",
          "type": "address"
        },
        {
          "indexed": true,
          "internalType": "address",
          "name": "spender",
          "type": "address"
        },
        {
          "indexed": false,
          "internalType": "uint256",
          "name": "value",
          "type": "uint256"
        }
      ],
      "name": "Approval",
      "type": "event"
    },
    {
      "anonymous": false,
      "inputs": [
        {
          "indexed": true,
          "internalType": "address",
          "name": "newEmitter",
          "type": "address"
        }
      ],
      "name": "EmitterUpdated",
      "type": "event"
    },
    {
      "anonymous": false,
      "inputs": [
        {
          "indexed": true,
          "internalType": "address",
          "name": "newGovernance",
          "type": "address"
        }
      ],
      "name": "GovernanceUpdated",
      "type": "event"
    },
    {
      "anonymous": false,
      "inputs": [
        {
          "indexed": true,
          "internalType": "address",
          "name": "from",
          "type": "address"
        },
        {
          "indexed": true,
          "internalType": "address",
          "name": "to",
          "type": "address"
        },
        {
          "indexed": false,
          "internalType": "uint256",
          "name": "value",
          "type": "uint256"
        }
      ],
      "name": "Transfer",
      "type": "event"
    },
    {
      "inputs": [
        {
          "internalType": "address",
          "name": "owner",
          "type": "address"
        },
        {
          "internalType": "address",
          "name": "spender",
          "type": "address"
        }
      ],
      "name": "allowance",
      "outputs": [
        {
          "internalType": "uint256",
          "name": "",
          "type": "uint256"
        }
      ],
      "stateMutability": "view",
      "type": "function"
    },
    {
      "inputs": [
        {
          "internalType": "address",
          "name": "spender",
          "type": "address"
        },
        {
          "internalType": "uint256",
          "name": "amount",
          "type": "uint256"
        }
      ],
      "name": "approve",
      "outputs": [
        {
          "internalType": "bool",
          "name": "",
          "type": "bool"
        }
      ],
      "stateMutability": "nonpayable",
      "type": "function"
    },
    {
      "inputs": [
        {
          "internalType": "address",
          "name": "account",
          "type": "address"
        }
      ],
      "name": "balanceOf",
      "outputs": [
        {
          "internalType": "uint256",
          "name": "",
          "type": "uint256"
        }
      ],
      "stateMutability": "view",
      "type": "function"
    },
    {
      "inputs": [
        {
          "internalType": "uint256",
          "name": "amount",
          "type": "uint256"
        }
      ],
      "name": "burn",
      "outputs": [],
      "stateMutability": "nonpayable",
      "type": "function"
    },
    {
      "inputs": [],
      "name": "decimals",
      "outputs": [
        {
          "internalType": "uint8",
          "name": "",
          "type": "uint8"
        }
      ],
      "stateMutability": "view",
      "type": "function"
    },
    {
      "inputs": [],
      "name": "emitter",
      "outputs": [
        {
          "internalType": "address",
          "name": "",
          "type": "address"
        }
      ],
      "stateMutability": "view",
      "type": "function"
    },
    {
      "inputs": [],
      "name": "governance",
      "outputs": [
        {
          "internalType": "address",
          "name": "",
          "type": "address"
        }
      ],
      "stateMutability": "view",
      "type": "function"
    },
    {
      "inputs": [
        {
          "internalType": "address",
          "name": "to",
          "type": "address"
        },
        {
          "internalType": "uint256",
          "name": "amount",
          "type": "uint256"
        }
      ],
      "name": "mint",
      "outputs": [],
      "stateMutability": "nonpayable",
      "type": "function"
    },
    {
      "inputs": [],
      "name": "name",
      "outputs": [
        {
          "internalType": "string",
          "name": "",
          "type": "string"
        }
      ],
      "stateMutability": "view",
      "type": "function"
    },
    {
      "inputs": [
        {
          "internalType": "address",
          "name": "newEmitter",
          "type": "address"
        }
      ],
      "name": "setEmitter",
      "outputs": [],
      "stateMutability": "nonpayable",
      "type": "function"
    },
    {
      "inputs": [
        {
          "internalType": "address",
          "name": "newGovernance",
          "type": "address"
        }
      ],
      "name": "setGovernance",
      "outputs": [],
      "stateMutability": "nonpayable",
      "type": "function"
    },
    {
      "inputs": [],
      "name": "symbol",
      "outputs": [
        {
          "internalType": "string",
          "name": "",
          "type": "string"
        }
      ],
      "stateMutability": "view",
      "type": "function"
    },
    {
      "inputs": [],
      "name": "totalSupply",
      "outputs": [
        {
          "internalType": "uint256",
          "name": "",
          "type": "uint256"
        }
      ],
      "stateMutability": "view",
      "type": "function"
    },
    {
      "inputs": [
        {
          "internalType": "address",
          "name": "to",
          "type": "address"
        },
        {
          "internalType": "uint256",
          "name": "amount",
          "type": "uint256"
        }
      ],
      "name": "transfer",
      "outputs": [
        {
          "internalType": "bool",
          "name": "",
          "type": "bool"
        }
      ],
      "stateMutability": "nonpayable",
      "type": "function"
    },
    {
      "inputs": [
        {
          "internalType": "address",
          "name": "from",
          "type": "address"
        },
        {
          "internalType": "address",
          "name": "to",
          "type": "address"
        },
        {
          "internalType": "uint256",
          "name": "amount",
          "type": "uint256"
        }
      ],
      "name": "transferFrom",
      "outputs": [
        {
          "internalType": "bool",
          "name": "",
          "type": "bool"
        }
      ],
      "stateMutability": "nonpayable",
      "type": "function"
    }
  ],
  "bytecode": "0x608060405234801561001057600080fd5b50604051610bbf380380610bbf83398101604081905261002f91610097565b6001600160a01b038216156100445781610046565b335b600380546001600160a01b039283166001600160a01b03199182161790915560048054939092169216919091179055506100ca565b80516001600160a01b038116811461009257600080fd5b919050565b600080604083850312156100aa57600080fd5b6100b38361007b565b91506100c16020840161007b565b90509250929050565b610ae6806100d96000396000f3fe608060405234801561001057600080fd5b50600436106100f55760003560e01c80635aa6e67511610097578063a9059cbb11610066578063a9059cbb14610248578063ab033ea91461025b578063dce113751461026e578063dd62ed3e1461028157600080fd5b80635aa6e675146101bf57806370a08231146101ea57806395d89b41146102135780639f903ff61461023557600080fd5b806323b872dd116100d357806323b872dd1461016a578063313ce5671461017d57806340c10f191461019757806342966c68146101ac57600080fd5b806306fdde03146100fa578063095ea7b31461013557806318160ddd14610158575b600080fd5b61011f604051806040016040528060068152602001654861766e414960d01b81525081565b60405161012c9190610936565b60405180910390f35b6101486101433660046109a0565b6102ba565b604051901515815260200161012c565b6002545b60405190815260200161012c565b6101486101783660046109ca565b6102d1565b610185601281565b60405160ff909116815260200161012c565b6101aa6101a53660046109a0565b61036d565b005b6101aa6101ba366004610a06565b6103e3565b6003546101d2906001600160a01b031681565b6040516001600160a01b03909116815260200161012c565b61015c6101f8366004610a1f565b6001600160a01b031660009081526020819052604090205490565b61011f6040518060400160405280600381526020016248414960e81b81525081565b6101aa610243366004610a1f565b6103f0565b6101486102563660046109a0565b61048a565b6101aa610269366004610a1f565b610497565b6004546101d2906001600160a01b031681565b61015c61028f366004610a41565b6001600160a01b03918216600090815260016020908152604080832093909416825291909152205490565b60006102c733848461057e565b5060015b92915050565b6001600160a01b03831660009081526001602090815260408083203384529091528120548281101561034a5760405162461bcd60e51b815260206004820152601760248201527f4841493a20616c6c6f77616e636520657863656564656400000000000000000060448201526064015b60405180910390fd5b610357853385840361057e565b610362858585610640565b506001949350505050565b6003546001600160a01b031633148061039057506004546001600160a01b031633145b6103d55760405162461bcd60e51b81526020600482015260166024820152751210524e881d5b985d5d1a1bdc9a5e9959081b5a5b9d60521b6044820152606401610341565b6103df8282610788565b5050565b6103ed338261085b565b50565b6003546001600160a01b031633146104405760405162461bcd60e51b81526020600482015260136024820152724841493a206e6f7420676f7665726e616e636560681b6044820152606401610341565b600480546001600160a01b0319166001600160a01b0383169081179091556040517fdc318878e78afa5b81b96888500b89354bbb466da7d7e4907127ea01f8a057e390600090a250565b60006102c7338484610640565b6003546001600160a01b031633146104e75760405162461bcd60e51b81526020600482015260136024820152724841493a206e6f7420676f7665726e616e636560681b6044820152606401610341565b6001600160a01b0381166105345760405162461bcd60e51b81526020600482015260146024820152734841493a207a65726f20676f7665726e616e636560601b6044820152606401610341565b600380546001600160a01b0319166001600160a01b0383169081179091556040517f9d3e522e1e47a2f6009739342b9cc7b252a1888154e843ab55ee1c81745795ab90600090a250565b6001600160a01b0383161580159061059e57506001600160a01b03821615155b6105de5760405162461bcd60e51b81526020600482015260116024820152704841493a20617070726f7665207a65726f60781b6044820152606401610341565b6001600160a01b0383811660008181526001602090815260408083209487168084529482529182902085905590518481527f8c5be1e5ebec7d5bd14f71427d1e84f3dd0314c0f7b2291e5b200ac8c7c3b92591015b60405180910390a3505050565b6001600160a01b03821661068e5760405162461bcd60e51b81526020600482015260156024820152744841493a207472616e7366657220746f207a65726f60581b6044820152606401610341565b6001600160a01b038316600090815260208190526040902054818110156106f75760405162461bcd60e51b815260206004820152601960248201527f4841493a20696e73756666696369656e742062616c616e6365000000000000006044820152606401610341565b6001600160a01b0380851660009081526020819052604080822085850390559185168152908120805484929061072e908490610a8a565b92505081905550826001600160a01b0316846001600160a01b03167fddf252ad1be2c89b69c2b068fc378daa952ba7f163c4a11628f55a4df523b3ef8460405161077a91815260200190565b60405180910390a350505050565b6001600160a01b0382166107d25760405162461bcd60e51b81526020600482015260116024820152704841493a206d696e7420746f207a65726f60781b6044820152606401610341565b80600260008282546107e49190610a8a565b90915550506001600160a01b03821660009081526020819052604081208054839290610811908490610a8a565b90915550506040518181526001600160a01b038316906000907fddf252ad1be2c89b69c2b068fc378daa952ba7f163c4a11628f55a4df523b3ef9060200160405180910390a35050565b6001600160a01b038216600090815260208190526040902054818110156108c45760405162461bcd60e51b815260206004820152601960248201527f4841493a206275726e20657863656564732062616c616e6365000000000000006044820152606401610341565b6001600160a01b03831660009081526020819052604081208383039055600280548492906108f3908490610a9d565b90915550506040518281526000906001600160a01b038516907fddf252ad1be2c89b69c2b068fc378daa952ba7f163c4a11628f55a4df523b3ef90602001610633565b600060208083528351808285015260005b8181101561096357858101830151858201604001528201610947565b506000604082860101526040601f19601f8301168501019250505092915050565b80356001600160a01b038116811461099b57600080fd5b919050565b600080604083850312156109b357600080fd5b6109bc83610984565b946020939093013593505050565b6000806000606084860312156109df57600080fd5b6109e884610984565b92506109f660208501610984565b9150604084013590509250925092565b600060208284031215610a1857600080fd5b5035919050565b600060208284031215610a3157600080fd5b610a3a82610984565b9392505050565b60008060408385031215610a5457600080fd5b610a5d83610984565b9150610a6b60208401610984565b90509250929050565b634e487b7160e01b600052601160045260246000fd5b808201808211156102cb576102cb610a74565b818103818111156102cb576102cb610a7456fea264697066735822122066466048dc1204e99ee9ff2e0d9412fd25c6ad3b759f2f7756a178d23404cdbc64736f6c63430008140033",
  "linkReferences": {},
  "deployedLinkReferences": {}
}